{
  "contractName": "Organ",
  "abi": [
    {
      "constant": true,
      "inputs": [],
      "name": "name",
      "outputs": [
        {
          "name": "",
          "type": "string"
        }
      ],
      "payable": false,
      "stateMutability": "view",
      "type": "function"
    },
    {
      "constant": true,
      "inputs": [
        {
          "name": "_tokenId",
          "type": "uint256"
        }
      ],
      "name": "getApproved",
      "outputs": [
        {
          "name": "",
          "type": "address"
        }
      ],
      "payable": false,
      "stateMutability": "view",
      "type": "function"
    },
    {
      "constant": true,
      "inputs": [
        {
          "name": "addr",
          "type": "address"
        },
        {
          "name": "roleName",
          "type": "string"
        }
      ],
      "name": "checkRole",
      "outputs": [],
      "payable": false,
      "stateMutability": "view",
      "type": "function"
    },
    {
      "constant": true,
      "inputs": [],
      "name": "totalSupply",
      "outputs": [
        {
          "name": "",
          "type": "uint256"
        }
      ],
      "payable": false,
      "stateMutability": "view",
      "type": "function"
    },
    {
      "constant": true,
      "inputs": [
        {
          "name": "addr",
          "type": "address"
        },
        {
          "name": "roleName",
          "type": "string"
        }
      ],
      "name": "hasRole",
      "outputs": [
        {
          "name": "",
          "type": "bool"
        }
      ],
      "payable": false,
      "stateMutability": "view",
      "type": "function"
    },
    {
      "constant": false,
      "inputs": [
        {
          "name": "_from",
          "type": "address"
        },
        {
          "name": "_to",
          "type": "address"
        },
        {
          "name": "_tokenId",
          "type": "uint256"
        }
      ],
      "name": "transferFrom",
      "outputs": [],
      "payable": false,
      "stateMutability": "nonpayable",
      "type": "function"
    },
    {
      "constant": true,
      "inputs": [
        {
          "name": "_owner",
          "type": "address"
        },
        {
          "name": "_index",
          "type": "uint256"
        }
      ],
      "name": "tokenOfOwnerByIndex",
      "outputs": [
        {
          "name": "",
          "type": "uint256"
        }
      ],
      "payable": false,
      "stateMutability": "view",
      "type": "function"
    },
    {
      "constant": false,
      "inputs": [
        {
          "name": "_from",
          "type": "address"
        },
        {
          "name": "_to",
          "type": "address"
        },
        {
          "name": "_tokenId",
          "type": "uint256"
        }
      ],
      "name": "safeTransferFrom",
      "outputs": [],
      "payable": false,
      "stateMutability": "nonpayable",
      "type": "function"
    },
    {
      "constant": true,
      "inputs": [
        {
          "name": "_tokenId",
          "type": "uint256"
        }
      ],
      "name": "exists",
      "outputs": [
        {
          "name": "",
          "type": "bool"
        }
      ],
      "payable": false,
      "stateMutability": "view",
      "type": "function"
    },
    {
      "constant": true,
      "inputs": [
        {
          "name": "_index",
          "type": "uint256"
        }
      ],
      "name": "tokenByIndex",
      "outputs": [
        {
          "name": "",
          "type": "uint256"
        }
      ],
      "payable": false,
      "stateMutability": "view",
      "type": "function"
    },
    {
      "constant": true,
      "inputs": [
        {
          "name": "",
          "type": "uint256"
        }
      ],
      "name": "tokenIdToMetaData",
      "outputs": [
        {
          "name": "donor",
          "type": "address"
        },
        {
          "name": "bloodType",
          "type": "bytes32"
        },
        {
          "name": "size",
          "type": "uint256"
        },
        {
          "name": "averageTemperature",
          "type": "uint256"
        },
        {
          "name": "recipient",
          "type": "address"
        },
        {
          "name": "expiration",
          "type": "uint256"
        },
        {
          "name": "delivered",
          "type": "bool"
        }
      ],
      "payable": false,
      "stateMutability": "view",
      "type": "function"
    },
    {
      "constant": true,
      "inputs": [
        {
          "name": "_tokenId",
          "type": "uint256"
        }
      ],
      "name": "ownerOf",
      "outputs": [
        {
          "name": "",
          "type": "address"
        }
      ],
      "payable": false,
      "stateMutability": "view",
      "type": "function"
    },
    {
      "constant": true,
      "inputs": [
        {
          "name": "_owner",
          "type": "address"
        }
      ],
      "name": "balanceOf",
      "outputs": [
        {
          "name": "",
          "type": "uint256"
        }
      ],
      "payable": false,
      "stateMutability": "view",
      "type": "function"
    },
    {
      "constant": false,
      "inputs": [
        {
          "name": "addr",
          "type": "address"
        },
        {
          "name": "roleName",
          "type": "string"
        }
      ],
      "name": "adminRemoveRole",
      "outputs": [],
      "payable": false,
      "stateMutability": "nonpayable",
      "type": "function"
    },
    {
      "constant": true,
      "inputs": [],
      "name": "owner",
      "outputs": [
        {
          "name": "",
          "type": "address"
        }
      ],
      "payable": false,
      "stateMutability": "view",
      "type": "function"
    },
    {
      "constant": true,
      "inputs": [],
      "name": "symbol",
      "outputs": [
        {
          "name": "",
          "type": "string"
        }
      ],
      "payable": false,
      "stateMutability": "view",
      "type": "function"
    },
    {
      "constant": false,
      "inputs": [
        {
          "name": "_to",
          "type": "address"
        },
        {
          "name": "_approved",
          "type": "bool"
        }
      ],
      "name": "setApprovalForAll",
      "outputs": [],
      "payable": false,
      "stateMutability": "nonpayable",
      "type": "function"
    },
    {
      "constant": true,
      "inputs": [],
      "name": "totalSubmissions",
      "outputs": [
        {
          "name": "",
          "type": "uint256"
        }
      ],
      "payable": false,
      "stateMutability": "view",
      "type": "function"
    },
    {
      "constant": true,
      "inputs": [],
      "name": "ROLE_SIGNER",
      "outputs": [
        {
          "name": "",
          "type": "string"
        }
      ],
      "payable": false,
      "stateMutability": "view",
      "type": "function"
    },
    {
      "constant": false,
      "inputs": [
        {
          "name": "addr",
          "type": "address"
        },
        {
          "name": "roleName",
          "type": "string"
        }
      ],
      "name": "adminAddRole",
      "outputs": [],
      "payable": false,
      "stateMutability": "nonpayable",
      "type": "function"
    },
    {
      "constant": false,
      "inputs": [
        {
          "name": "_from",
          "type": "address"
        },
        {
          "name": "_to",
          "type": "address"
        },
        {
          "name": "_tokenId",
          "type": "uint256"
        },
        {
          "name": "_data",
          "type": "bytes"
        }
      ],
      "name": "safeTransferFrom",
      "outputs": [],
      "payable": false,
      "stateMutability": "nonpayable",
      "type": "function"
    },
    {
      "constant": true,
      "inputs": [
        {
          "name": "_tokenId",
          "type": "uint256"
        }
      ],
      "name": "tokenURI",
      "outputs": [
        {
          "name": "",
          "type": "string"
        }
      ],
      "payable": false,
      "stateMutability": "view",
      "type": "function"
    },
    {
      "constant": true,
      "inputs": [],
      "name": "ROLE_ADMIN",
      "outputs": [
        {
          "name": "",
          "type": "string"
        }
      ],
      "payable": false,
      "stateMutability": "view",
      "type": "function"
    },
    {
      "constant": true,
      "inputs": [],
      "name": "ROLE_OPO",
      "outputs": [
        {
          "name": "",
          "type": "string"
        }
      ],
      "payable": false,
      "stateMutability": "view",
      "type": "function"
    },
    {
      "constant": true,
      "inputs": [
        {
          "name": "_owner",
          "type": "address"
        },
        {
          "name": "_operator",
          "type": "address"
        }
      ],
      "name": "isApprovedForAll",
      "outputs": [
        {
          "name": "",
          "type": "bool"
        }
      ],
      "payable": false,
      "stateMutability": "view",
      "type": "function"
    },
    {
      "constant": false,
      "inputs": [
        {
          "name": "newOwner",
          "type": "address"
        }
      ],
      "name": "transferOwnership",
      "outputs": [],
      "payable": false,
      "stateMutability": "nonpayable",
      "type": "function"
    },
    {
      "inputs": [],
      "payable": false,
      "stateMutability": "nonpayable",
      "type": "constructor"
    },
    {
      "anonymous": false,
      "inputs": [
        {
          "indexed": true,
          "name": "submitter",
          "type": "address"
        },
        {
          "indexed": true,
          "name": "id",
          "type": "uint256"
        },
        {
          "indexed": false,
          "name": "timestamp",
          "type": "uint256"
        }
      ],
      "name": "Submission",
      "type": "event"
    },
    {
      "anonymous": false,
      "inputs": [
        {
          "indexed": true,
          "name": "signer",
          "type": "address"
        },
        {
          "indexed": true,
          "name": "id",
          "type": "uint256"
        },
        {
          "indexed": false,
          "name": "numSignature",
          "type": "uint256"
        }
      ],
      "name": "Sign",
      "type": "event"
    },
    {
      "anonymous": false,
      "inputs": [
        {
          "indexed": true,
          "name": "id",
          "type": "uint256"
        }
      ],
      "name": "SubmissionFinished",
      "type": "event"
    },
    {
      "anonymous": false,
      "inputs": [
        {
          "indexed": true,
          "name": "minter",
          "type": "address"
        },
        {
          "indexed": true,
          "name": "id",
          "type": "uint256"
        },
        {
          "indexed": true,
          "name": "recipient",
          "type": "address"
        },
        {
          "indexed": false,
          "name": "timestamp",
          "type": "uint256"
        },
        {
          "indexed": false,
          "name": "expiration",
          "type": "uint256"
        }
      ],
      "name": "OrganMinted",
      "type": "event"
    },
    {
      "anonymous": false,
      "inputs": [
        {
          "indexed": true,
          "name": "recipient",
          "type": "address"
        },
        {
          "indexed": true,
          "name": "id",
          "type": "uint256"
        },
        {
          "indexed": false,
          "name": "timestamp",
          "type": "uint256"
        }
      ],
      "name": "Delivered",
      "type": "event"
    },
    {
      "anonymous": false,
      "inputs": [
        {
          "indexed": true,
          "name": "previousOwner",
          "type": "address"
        },
        {
          "indexed": true,
          "name": "newOwner",
          "type": "address"
        }
      ],
      "name": "OwnershipTransferred",
      "type": "event"
    },
    {
      "anonymous": false,
      "inputs": [
        {
          "indexed": false,
          "name": "addr",
          "type": "address"
        },
        {
          "indexed": false,
          "name": "roleName",
          "type": "string"
        }
      ],
      "name": "RoleAdded",
      "type": "event"
    },
    {
      "anonymous": false,
      "inputs": [
        {
          "indexed": false,
          "name": "addr",
          "type": "address"
        },
        {
          "indexed": false,
          "name": "roleName",
          "type": "string"
        }
      ],
      "name": "RoleRemoved",
      "type": "event"
    },
    {
      "anonymous": false,
      "inputs": [
        {
          "indexed": true,
          "name": "_from",
          "type": "address"
        },
        {
          "indexed": true,
          "name": "_to",
          "type": "address"
        },
        {
          "indexed": false,
          "name": "_tokenId",
          "type": "uint256"
        }
      ],
      "name": "Transfer",
      "type": "event"
    },
    {
      "anonymous": false,
      "inputs": [
        {
          "indexed": true,
          "name": "_owner",
          "type": "address"
        },
        {
          "indexed": true,
          "name": "_approved",
          "type": "address"
        },
        {
          "indexed": false,
          "name": "_tokenId",
          "type": "uint256"
        }
      ],
      "name": "Approval",
      "type": "event"
    },
    {
      "anonymous": false,
      "inputs": [
        {
          "indexed": true,
          "name": "_owner",
          "type": "address"
        },
        {
          "indexed": true,
          "name": "_operator",
          "type": "address"
        },
        {
          "indexed": false,
          "name": "_approved",
          "type": "bool"
        }
      ],
      "name": "ApprovalForAll",
      "type": "event"
    },
    {
      "constant": false,
      "inputs": [
        {
          "name": "_signer",
          "type": "address"
        }
      ],
      "name": "addSigner",
      "outputs": [],
      "payable": false,
      "stateMutability": "nonpayable",
      "type": "function"
    },
    {
      "constant": false,
      "inputs": [
        {
          "name": "_opo",
          "type": "address"
        }
      ],
      "name": "addOpo",
      "outputs": [],
      "payable": false,
      "stateMutability": "nonpayable",
      "type": "function"
    },
    {
      "constant": false,
      "inputs": [
        {
          "name": "_donor",
          "type": "address"
        },
        {
          "name": "_bloodType",
          "type": "bytes32"
        },
        {
          "name": "_size",
          "type": "uint256"
        }
      ],
      "name": "submitOrgan",
      "outputs": [],
      "payable": false,
      "stateMutability": "nonpayable",
      "type": "function"
    },
    {
      "constant": false,
      "inputs": [
        {
          "name": "_id",
          "type": "uint256"
        }
      ],
      "name": "signSubmission",
      "outputs": [],
      "payable": false,
      "stateMutability": "nonpayable",
      "type": "function"
    },
    {
      "constant": false,
      "inputs": [
        {
          "name": "_id",
          "type": "uint256"
        },
        {
          "name": "_recipient",
          "type": "address"
        },
        {
          "name": "_expiration",
          "type": "uint256"
        }
      ],
      "name": "mintOrgan",
      "outputs": [],
      "payable": false,
      "stateMutability": "nonpayable",
      "type": "function"
    },
    {
      "constant": true,
      "inputs": [
        {
          "name": "_owner",
          "type": "address"
        },
        {
          "name": "_index",
          "type": "uint256"
        }
      ],
      "name": "tokenOfApprovalByIndex",
      "outputs": [
        {
          "name": "",
          "type": "uint256"
        }
      ],
      "payable": false,
      "stateMutability": "view",
      "type": "function"
    },
    {
      "constant": false,
      "inputs": [
        {
          "name": "_to",
          "type": "address"
        },
        {
          "name": "_tokenId",
          "type": "uint256"
        }
      ],
      "name": "approve",
      "outputs": [],
      "payable": false,
      "stateMutability": "nonpayable",
      "type": "function"
    },
    {
      "constant": false,
      "inputs": [
        {
          "name": "_from",
          "type": "address"
        },
        {
          "name": "_to",
          "type": "address"
        },
        {
          "name": "_tokenId",
          "type": "uint256"
        },
        {
          "name": "_averageTemperature",
          "type": "uint256"
        }
      ],
      "name": "_transferFrom",
      "outputs": [],
      "payable": false,
      "stateMutability": "nonpayable",
      "type": "function"
    },
    {
      "constant": true,
      "inputs": [
        {
          "name": "_id",
          "type": "uint256"
        }
      ],
      "name": "getMetaData",
      "outputs": [
        {
          "name": "",
          "type": "address"
        },
        {
          "name": "",
          "type": "bytes32"
        },
        {
          "name": "",
          "type": "uint256"
        },
        {
          "name": "",
          "type": "uint256"
        },
        {
          "name": "",
          "type": "address"
        },
        {
          "name": "",
          "type": "uint256"
        },
        {
          "name": "",
          "type": "bool"
        }
      ],
      "payable": false,
      "stateMutability": "view",
      "type": "function"
    }
  ],
  "bytecode": "0x60806040523480156200001157600080fd5b506040805190810160405280600581526020017f4f7267616e0000000000000000000000000000000000000000000000000000008152506040805190810160405280600581526020017f4f5247414e0000000000000000000000000000000000000000000000000000008152508160049080519060200190620000969291906200030d565b508060059080519060200190620000af9291906200030d565b50505062000102336040805190810160405280600581526020017f61646d696e00000000000000000000000000000000000000000000000000000081525062000149640100000000026401000000009004565b33600c60006101000a81548173ffffffffffffffffffffffffffffffffffffffff021916908373ffffffffffffffffffffffffffffffffffffffff160217905550620003bc565b620001d882600b836040518082805190602001908083835b60208310151562000188578051825260208201915060208101905060208303925062000161565b6001836020036101000a0380198251168184511680821785525050505050509050019150509081526020016040518091039020620002af6401000000000262003862179091906401000000009004565b7fbfec83d64eaa953f2708271a023ab9ee82057f8f3578d548c1a4ba0b5b7004898282604051808373ffffffffffffffffffffffffffffffffffffffff1673ffffffffffffffffffffffffffffffffffffffff16815260200180602001828103825283818151815260200191508051906020019080838360005b838110156200026f57808201518184015260208101905062000252565b50505050905090810190601f1680156200029d5780820380516001836020036101000a031916815260200191505b50935050505060405180910390a15050565b60018260000160008373ffffffffffffffffffffffffffffffffffffffff1673ffffffffffffffffffffffffffffffffffffffff16815260200190815260200160002060006101000a81548160ff0219169083151502179055505050565b828054600181600116156101000203166002900490600052602060002090601f016020900481019282601f106200035057805160ff191683800117855562000381565b8280016001018555821562000381579182015b828111156200038057825182559160200191906001019062000363565b5b50905062000390919062000394565b5090565b620003b991905b80821115620003b55760008160009055506001016200039b565b5090565b90565b61396c80620003cc6000396000f3006080604052600436106101b7576000357c0100000000000000000000000000000000000000000000000000000000900463ffffffff16806306fdde03146101bc578063081812fc1461024c578063095ea7b3146102b95780630988ca8c146103065780630d7246471461038f57806318160ddd146103e6578063217fe6c61461041157806323b872dd146104b25780632f745c591461051f57806335e28ea41461058057806342842e0e146105ad5780634f558e791461061a5780634f6ccce71461065f5780634ff38e48146106a057806361eba5521461076f5780636352211e1461083e57806370a08231146108ab578063870854601461090257806388cee87e1461095d5780638da5cb5b146109e65780638e784c0b14610a3d57806395d89b4114610ab4578063a22cb46514610b44578063a395401614610b93578063a50781d414610bbe578063af2371e314610c01578063b25fa92c14610c91578063b88d4fde14610d1a578063c87b56dd14610dcd578063d391014b14610e73578063dd878d9814610f03578063e985e9c514610f93578063eb12d61e1461100e578063ec77078614611051578063f2fde38b146110b2575b600080fd5b3480156101c857600080fd5b506101d16110f5565b6040518080602001828103825283818151815260200191508051906020019080838360005b838110156102115780820151818401526020810190506101f6565b50505050905090810190601f16801561023e5780820380516001836020036101000a031916815260200191505b509250505060405180910390f35b34801561025857600080fd5b5061027760048036038101908080359060200190929190505050611197565b604051808273ffffffffffffffffffffffffffffffffffffffff1673ffffffffffffffffffffffffffffffffffffffff16815260200191505060405180910390f35b3480156102c557600080fd5b50610304600480360381019080803573ffffffffffffffffffffffffffffffffffffffff169060200190929190803590602001909291905050506111d4565b005b34801561031257600080fd5b5061038d600480360381019080803573ffffffffffffffffffffffffffffffffffffffff169060200190929190803590602001908201803590602001908080601f01602080910402602001604051908101604052809392919081815260200183838082843782019150505050505091929192905050506111ec565b005b34801561039b57600080fd5b506103e460048036038101908080359060200190929190803573ffffffffffffffffffffffffffffffffffffffff1690602001909291908035906020019092919050505061126d565b005b3480156103f257600080fd5b506103fb6113f4565b6040518082815260200191505060405180910390f35b34801561041d57600080fd5b50610498600480360381019080803573ffffffffffffffffffffffffffffffffffffffff169060200190929190803590602001908201803590602001908080601f0160208091040260200160405190810160405280939291908181526020018383808284378201915050505050509192919290505050611401565b604051808215151515815260200191505060405180910390f35b3480156104be57600080fd5b5061051d600480360381019080803573ffffffffffffffffffffffffffffffffffffffff169060200190929190803573ffffffffffffffffffffffffffffffffffffffff16906020019092919080359060200190929190505050611488565b005b34801561052b57600080fd5b5061056a600480360381019080803573ffffffffffffffffffffffffffffffffffffffff169060200190929190803590602001909291905050506115d9565b6040518082815260200191505060405180910390f35b34801561058c57600080fd5b506105ab60048036038101908080359060200190929190505050611650565b005b3480156105b957600080fd5b50610618600480360381019080803573ffffffffffffffffffffffffffffffffffffffff169060200190929190803573ffffffffffffffffffffffffffffffffffffffff16906020019092919080359060200190929190505050611814565b005b34801561062657600080fd5b506106456004803603810190808035906020019092919050505061184c565b604051808215151515815260200191505060405180910390f35b34801561066b57600080fd5b5061068a600480360381019080803590602001909291905050506118bd565b6040518082815260200191505060405180910390f35b3480156106ac57600080fd5b506106cb600480360381019080803590602001909291905050506118f5565b604051808873ffffffffffffffffffffffffffffffffffffffff1673ffffffffffffffffffffffffffffffffffffffff16815260200187600019166000191681526020018681526020018581526020018473ffffffffffffffffffffffffffffffffffffffff1673ffffffffffffffffffffffffffffffffffffffff1681526020018381526020018215151515815260200197505050505050505060405180910390f35b34801561077b57600080fd5b5061079a60048036038101908080359060200190929190505050611984565b604051808873ffffffffffffffffffffffffffffffffffffffff1673ffffffffffffffffffffffffffffffffffffffff16815260200187600019166000191681526020018681526020018581526020018473ffffffffffffffffffffffffffffffffffffffff1673ffffffffffffffffffffffffffffffffffffffff1681526020018381526020018215151515815260200197505050505050505060405180910390f35b34801561084a57600080fd5b5061086960048036038101908080359060200190929190505050611a2f565b604051808273ffffffffffffffffffffffffffffffffffffffff1673ffffffffffffffffffffffffffffffffffffffff16815260200191505060405180910390f35b3480156108b757600080fd5b506108ec600480360381019080803573ffffffffffffffffffffffffffffffffffffffff169060200190929190505050611aac565b6040518082815260200191505060405180910390f35b34801561090e57600080fd5b5061095b600480360381019080803573ffffffffffffffffffffffffffffffffffffffff169060200190929190803560001916906020019092919080359060200190929190505050611b30565b005b34801561096957600080fd5b506109e4600480360381019080803573ffffffffffffffffffffffffffffffffffffffff169060200190929190803590602001908201803590602001908080601f0160208091040260200160405190810160405280939291908181526020018383808284378201915050505050509192919290505050611cb9565b005b3480156109f257600080fd5b506109fb611d06565b604051808273ffffffffffffffffffffffffffffffffffffffff1673ffffffffffffffffffffffffffffffffffffffff16815260200191505060405180910390f35b348015610a4957600080fd5b50610ab2600480360381019080803573ffffffffffffffffffffffffffffffffffffffff169060200190929190803573ffffffffffffffffffffffffffffffffffffffff1690602001909291908035906020019092919080359060200190929190505050611d2c565b005b348015610ac057600080fd5b50610ac9611e4b565b6040518080602001828103825283818151815260200191508051906020019080838360005b83811015610b09578082015181840152602081019050610aee565b50505050905090810190601f168015610b365780820380516001836020036101000a031916815260200191505b509250505060405180910390f35b348015610b5057600080fd5b50610b91600480360381019080803573ffffffffffffffffffffffffffffffffffffffff169060200190929190803515159060200190929190505050611eed565b005b348015610b9f57600080fd5b50610ba8612029565b6040518082815260200191505060405180910390f35b348015610bca57600080fd5b50610bff600480360381019080803573ffffffffffffffffffffffffffffffffffffffff16906020019092919050505061202f565b005b348015610c0d57600080fd5b50610c166120b0565b6040518080602001828103825283818151815260200191508051906020019080838360005b83811015610c56578082015181840152602081019050610c3b565b50505050905090810190601f168015610c835780820380516001836020036101000a031916815260200191505b509250505060405180910390f35b348015610c9d57600080fd5b50610d18600480360381019080803573ffffffffffffffffffffffffffffffffffffffff169060200190929190803590602001908201803590602001908080601f01602080910402602001604051908101604052809392919081815260200183838082843782019150505050505091929192905050506120e9565b005b348015610d2657600080fd5b50610dcb600480360381019080803573ffffffffffffffffffffffffffffffffffffffff169060200190929190803573ffffffffffffffffffffffffffffffffffffffff16906020019092919080359060200190929190803590602001908201803590602001908080601f0160208091040260200160405190810160405280939291908181526020018383808284378201915050505050509192919290505050612136565b005b348015610dd957600080fd5b50610df860048036038101908080359060200190929190505050612175565b6040518080602001828103825283818151815260200191508051906020019080838360005b83811015610e38578082015181840152602081019050610e1d565b50505050905090810190601f168015610e655780820380516001836020036101000a031916815260200191505b509250505060405180910390f35b348015610e7f57600080fd5b50610e8861223e565b6040518080602001828103825283818151815260200191508051906020019080838360005b83811015610ec8578082015181840152602081019050610ead565b50505050905090810190601f168015610ef55780820380516001836020036101000a031916815260200191505b509250505060405180910390f35b348015610f0f57600080fd5b50610f18612277565b6040518080602001828103825283818151815260200191508051906020019080838360005b83811015610f58578082015181840152602081019050610f3d565b50505050905090810190601f168015610f855780820380516001836020036101000a031916815260200191505b509250505060405180910390f35b348015610f9f57600080fd5b50610ff4600480360381019080803573ffffffffffffffffffffffffffffffffffffffff169060200190929190803573ffffffffffffffffffffffffffffffffffffffff1690602001909291905050506122b0565b604051808215151515815260200191505060405180910390f35b34801561101a57600080fd5b5061104f600480360381019080803573ffffffffffffffffffffffffffffffffffffffff169060200190929190505050612344565b005b34801561105d57600080fd5b5061109c600480360381019080803573ffffffffffffffffffffffffffffffffffffffff169060200190929190803590602001909291905050506123c5565b6040518082815260200191505060405180910390f35b3480156110be57600080fd5b506110f3600480360381019080803573ffffffffffffffffffffffffffffffffffffffff169060200190929190505050612476565b005b606060048054600181600116156101000203166002900480601f01602080910402602001604051908101604052809291908181526020018280546001816001161561010002031660029004801561118d5780601f106111625761010080835404028352916020019161118d565b820191906000526020600020905b81548152906001019060200180831161117057829003601f168201915b5050505050905090565b60006001600083815260200190815260200160002060009054906101000a900473ffffffffffffffffffffffffffffffffffffffff169050919050565b6111de82826125ce565b6111e88282612794565b5050565b61126982600b836040518082805190602001908083835b6020831015156112285780518252602082019150602081019050602083039250611203565b6001836020036101000a038019825116818451168082178552505050505050905001915050908152602001604051809103902061286190919063ffffffff16565b5050565b6040805190810160405280600381526020017f6f706f00000000000000000000000000000000000000000000000000000000008152506112ad33826111ec565b600d600085815260200190815260200160002060020160009054906101000a900460ff1680156112fb5750600e600085815260200190815260200160002060009054906101000a900460ff16155b151561130657600080fd5b611310338561287a565b82600f600086815260200190815260200160002060040160006101000a81548173ffffffffffffffffffffffffffffffffffffffff021916908373ffffffffffffffffffffffffffffffffffffffff16021790555081600f6000868152602001908152602001600020600501819055508273ffffffffffffffffffffffffffffffffffffffff16843373ffffffffffffffffffffffffffffffffffffffff167f8ad9fff97d4c0709ab14da95e6861c009d90f6b74b0baf3e0eabb225c71bee214286604051808381526020018281526020019250505060405180910390a450505050565b6000600880549050905090565b600061148083600b846040518082805190602001908083835b60208310151561143f578051825260208201915060208101905060208303925061141a565b6001836020036101000a03801982511681845116808217855250505050505090500191505090815260200160405180910390206128d190919063ffffffff16565b905092915050565b80611493338261292a565b151561149e57600080fd5b600073ffffffffffffffffffffffffffffffffffffffff168473ffffffffffffffffffffffffffffffffffffffff16141515156114da57600080fd5b600073ffffffffffffffffffffffffffffffffffffffff168373ffffffffffffffffffffffffffffffffffffffff161415151561151657600080fd5b3373ffffffffffffffffffffffffffffffffffffffff168373ffffffffffffffffffffffffffffffffffffffff1614151561155057600080fd5b61155a84836129bf565b6115648483612b28565b61156e8383612d40565b8273ffffffffffffffffffffffffffffffffffffffff168473ffffffffffffffffffffffffffffffffffffffff167fddf252ad1be2c89b69c2b068fc378daa952ba7f163c4a11628f55a4df523b3ef846040518082815260200191505060405180910390a350505050565b60006115e483611aac565b821015156115f157600080fd5b600660008473ffffffffffffffffffffffffffffffffffffffff1673ffffffffffffffffffffffffffffffffffffffff1681526020019081526020016000208281548110151561163d57fe5b9060005260206000200154905092915050565b6000806040805190810160405280600681526020017f7369676e6572000000000000000000000000000000000000000000000000000081525061169333826111ec565b60011515600d600086815260200190815260200160002060000160009054906101000a900460ff1615151480156116f1575060001515600d600086815260200190815260200160002060020160009054906101000a900460ff161515145b15156116fc57600080fd5b600d60008581526020019081526020016000209250826003015491506001836001018360038110151561172b57fe5b602091828204019190066101000a81548160ff021916908315150217905550833373ffffffffffffffffffffffffffffffffffffffff167f6606a8bb80a4c7f8f56d2eb4774e6b48ad1d979612a8c130bc4c80538175a08d848060010195506040518082815260200191505060405180910390a3826003016000815480929190600101919050555082600301549150600382141561180e5760018360020160006101000a81548160ff021916908315150217905550837f34817f21c66e44450a81ed1ab61bea1d6d7e478e632202c35f396f29139f5b9160405160405180910390a25b50505050565b8061181f338261292a565b151561182a57600080fd5b6118468484846020604051908101604052806000815250612136565b50505050565b60008060008084815260200190815260200160002060009054906101000a900473ffffffffffffffffffffffffffffffffffffffff169050600073ffffffffffffffffffffffffffffffffffffffff168173ffffffffffffffffffffffffffffffffffffffff161415915050919050565b60006118c76113f4565b821015156118d457600080fd5b6008828154811015156118e357fe5b90600052602060002001549050919050565b600f6020528060005260406000206000915090508060000160009054906101000a900473ffffffffffffffffffffffffffffffffffffffff16908060010154908060020154908060030154908060040160009054906101000a900473ffffffffffffffffffffffffffffffffffffffff16908060050154908060060160009054906101000a900460ff16905087565b600080600080600080600080600f60008a815260200190815260200160002090508060000160009054906101000a900473ffffffffffffffffffffffffffffffffffffffff168160010154826002015483600301548460040160009054906101000a900473ffffffffffffffffffffffffffffffffffffffff1685600501548660060160009054906101000a900460ff16975097509750975097509750975050919395979092949650565b60008060008084815260200190815260200160002060009054906101000a900473ffffffffffffffffffffffffffffffffffffffff169050600073ffffffffffffffffffffffffffffffffffffffff168173ffffffffffffffffffffffffffffffffffffffff1614151515611aa357600080fd5b80915050919050565b60008073ffffffffffffffffffffffffffffffffffffffff168273ffffffffffffffffffffffffffffffffffffffff1614151515611ae957600080fd5b600260008373ffffffffffffffffffffffffffffffffffffffff1673ffffffffffffffffffffffffffffffffffffffff168152602001908152602001600020549050919050565b60006040805190810160405280600381526020017f6f706f0000000000000000000000000000000000000000000000000000000000815250611b7233826111ec565b60125491506001600d600084815260200190815260200160002060000160006101000a81548160ff0219169083151502179055506000600d60008481526020019081526020016000206003018190555084600f600084815260200190815260200160002060000160006101000a81548173ffffffffffffffffffffffffffffffffffffffff021916908373ffffffffffffffffffffffffffffffffffffffff16021790555083600f6000848152602001908152602001600020600101816000191690555082600f600084815260200190815260200160002060020181905550813373ffffffffffffffffffffffffffffffffffffffff167fe762cf96c5f34275702fa17cf14656066fd09e43104d012935f0ba8e9a1aba0f426040518082815260200191505060405180910390a36012600081548092919060010191905055505050505050565b611cf8336040805190810160405280600581526020017f61646d696e0000000000000000000000000000000000000000000000000000008152506111ec565b611d028282612e17565b5050565b600c60009054906101000a900473ffffffffffffffffffffffffffffffffffffffff1681565b611d37848484611488565b611d418383612f68565b80600f600084815260200190815260200160002060030181905550600f600083815260200190815260200160002060040160009054906101000a900473ffffffffffffffffffffffffffffffffffffffff1673ffffffffffffffffffffffffffffffffffffffff163373ffffffffffffffffffffffffffffffffffffffff161415611e45576001600f600084815260200190815260200160002060060160006101000a81548160ff021916908315150217905550818373ffffffffffffffffffffffffffffffffffffffff167f47357acf7cd02d7a69ba4d681fead1ba8015768d36e56cdd2340d1cc0a148d64426040518082815260200191505060405180910390a35b50505050565b606060058054600181600116156101000203166002900480601f016020809104026020016040519081016040528092919081815260200182805460018160011615610100020316600290048015611ee35780601f10611eb857610100808354040283529160200191611ee3565b820191906000526020600020905b815481529060010190602001808311611ec657829003601f168201915b5050505050905090565b3373ffffffffffffffffffffffffffffffffffffffff168273ffffffffffffffffffffffffffffffffffffffff1614151515611f2857600080fd5b80600360003373ffffffffffffffffffffffffffffffffffffffff1673ffffffffffffffffffffffffffffffffffffffff16815260200190815260200160002060008473ffffffffffffffffffffffffffffffffffffffff1673ffffffffffffffffffffffffffffffffffffffff16815260200190815260200160002060006101000a81548160ff0219169083151502179055508173ffffffffffffffffffffffffffffffffffffffff163373ffffffffffffffffffffffffffffffffffffffff167f17307eab39ab6107e8899845ad3d59bd9653f200f220920489ca2b5937696c3183604051808215151515815260200191505060405180910390a35050565b60125481565b61206e336040805190810160405280600581526020017f61646d696e0000000000000000000000000000000000000000000000000000008152506111ec565b6120ad816040805190810160405280600381526020017f6f706f00000000000000000000000000000000000000000000000000000000008152506120e9565b50565b6040805190810160405280600681526020017f7369676e6572000000000000000000000000000000000000000000000000000081525081565b612128336040805190810160405280600581526020017f61646d696e0000000000000000000000000000000000000000000000000000008152506111ec565b6121328282613176565b5050565b81612141338261292a565b151561214c57600080fd5b612157858585611488565b612163858585856132c7565b151561216e57600080fd5b5050505050565b60606121808261184c565b151561218b57600080fd5b600a60008381526020019081526020016000208054600181600116156101000203166002900480601f0160208091040260200160405190810160405280929190818152602001828054600181600116156101000203166002900480156122325780601f1061220757610100808354040283529160200191612232565b820191906000526020600020905b81548152906001019060200180831161221557829003601f168201915b50505050509050919050565b6040805190810160405280600581526020017f61646d696e00000000000000000000000000000000000000000000000000000081525081565b6040805190810160405280600381526020017f6f706f000000000000000000000000000000000000000000000000000000000081525081565b6000600360008473ffffffffffffffffffffffffffffffffffffffff1673ffffffffffffffffffffffffffffffffffffffff16815260200190815260200160002060008373ffffffffffffffffffffffffffffffffffffffff1673ffffffffffffffffffffffffffffffffffffffff16815260200190815260200160002060009054906101000a900460ff16905092915050565b612383336040805190810160405280600581526020017f61646d696e0000000000000000000000000000000000000000000000000000008152506111ec565b6123c2816040805190810160405280600681526020017f7369676e657200000000000000000000000000000000000000000000000000008152506120e9565b50565b6000601060008473ffffffffffffffffffffffffffffffffffffffff1673ffffffffffffffffffffffffffffffffffffffff168152602001908152602001600020805490508210151561241757600080fd5b601060008473ffffffffffffffffffffffffffffffffffffffff1673ffffffffffffffffffffffffffffffffffffffff1681526020019081526020016000208281548110151561246357fe5b9060005260206000200154905092915050565b600c60009054906101000a900473ffffffffffffffffffffffffffffffffffffffff1673ffffffffffffffffffffffffffffffffffffffff163373ffffffffffffffffffffffffffffffffffffffff161415156124d257600080fd5b600073ffffffffffffffffffffffffffffffffffffffff168173ffffffffffffffffffffffffffffffffffffffff161415151561250e57600080fd5b8073ffffffffffffffffffffffffffffffffffffffff16600c60009054906101000a900473ffffffffffffffffffffffffffffffffffffffff1673ffffffffffffffffffffffffffffffffffffffff167f8be0079c531659141344cd1fd0a4f28419497f9722a3daafe3b4186f6b6457e060405160405180910390a380600c60006101000a81548173ffffffffffffffffffffffffffffffffffffffff021916908373ffffffffffffffffffffffffffffffffffffffff16021790555050565b60006125d982611a2f565b90508073ffffffffffffffffffffffffffffffffffffffff168373ffffffffffffffffffffffffffffffffffffffff161415151561261657600080fd5b8073ffffffffffffffffffffffffffffffffffffffff163373ffffffffffffffffffffffffffffffffffffffff161480612656575061265581336122b0565b5b151561266157600080fd5b600073ffffffffffffffffffffffffffffffffffffffff1661268283611197565b73ffffffffffffffffffffffffffffffffffffffff161415806126d25750600073ffffffffffffffffffffffffffffffffffffffff168373ffffffffffffffffffffffffffffffffffffffff1614155b1561278f57826001600084815260200190815260200160002060006101000a81548173ffffffffffffffffffffffffffffffffffffffff021916908373ffffffffffffffffffffffffffffffffffffffff1602179055508273ffffffffffffffffffffffffffffffffffffffff168173ffffffffffffffffffffffffffffffffffffffff167f8c5be1e5ebec7d5bd14f71427d1e84f3dd0314c0f7b2291e5b200ac8c7c3b925846040518082815260200191505060405180910390a35b505050565b6000601060008473ffffffffffffffffffffffffffffffffffffffff1673ffffffffffffffffffffffffffffffffffffffff168152602001908152602001600020805490509050601060008473ffffffffffffffffffffffffffffffffffffffff1673ffffffffffffffffffffffffffffffffffffffff168152602001908152602001600020829080600181540180825580915050906001820390600052602060002001600090919290919091505550806011600084815260200190815260200160002081905550505050565b61286b82826128d1565b151561287657600080fd5b5050565b61288482826134b5565b600880549050600960008381526020019081526020016000208190555060088190806001815401808255809150509060018203906000526020600020016000909192909190915055505050565b60008260000160008373ffffffffffffffffffffffffffffffffffffffff1673ffffffffffffffffffffffffffffffffffffffff16815260200190815260200160002060009054906101000a900460ff16905092915050565b60008061293683611a2f565b90508073ffffffffffffffffffffffffffffffffffffffff168473ffffffffffffffffffffffffffffffffffffffff1614806129a557508373ffffffffffffffffffffffffffffffffffffffff1661298d84611197565b73ffffffffffffffffffffffffffffffffffffffff16145b806129b657506129b581856122b0565b5b91505092915050565b8173ffffffffffffffffffffffffffffffffffffffff166129df82611a2f565b73ffffffffffffffffffffffffffffffffffffffff16141515612a0157600080fd5b600073ffffffffffffffffffffffffffffffffffffffff166001600083815260200190815260200160002060009054906101000a900473ffffffffffffffffffffffffffffffffffffffff1673ffffffffffffffffffffffffffffffffffffffff16141515612b245760006001600083815260200190815260200160002060006101000a81548173ffffffffffffffffffffffffffffffffffffffff021916908373ffffffffffffffffffffffffffffffffffffffff160217905550600073ffffffffffffffffffffffffffffffffffffffff168273ffffffffffffffffffffffffffffffffffffffff167f8c5be1e5ebec7d5bd14f71427d1e84f3dd0314c0f7b2291e5b200ac8c7c3b925836040518082815260200191505060405180910390a35b5050565b6000806000612b378585613565565b60076000858152602001908152602001600020549250612ba36001600660008873ffffffffffffffffffffffffffffffffffffffff1673ffffffffffffffffffffffffffffffffffffffff1681526020019081526020016000208054905061369390919063ffffffff16565b9150600660008673ffffffffffffffffffffffffffffffffffffffff1673ffffffffffffffffffffffffffffffffffffffff16815260200190815260200160002082815481101515612bf157fe5b9060005260206000200154905080600660008773ffffffffffffffffffffffffffffffffffffffff1673ffffffffffffffffffffffffffffffffffffffff16815260200190815260200160002084815481101515612c4b57fe5b90600052602060002001819055506000600660008773ffffffffffffffffffffffffffffffffffffffff1673ffffffffffffffffffffffffffffffffffffffff16815260200190815260200160002083815481101515612ca757fe5b9060005260206000200181905550600660008673ffffffffffffffffffffffffffffffffffffffff1673ffffffffffffffffffffffffffffffffffffffff168152602001908152602001600020805480919060019003612d0791906138ef565b50600060076000868152602001908152602001600020819055508260076000838152602001908152602001600020819055505050505050565b6000612d4c83836136ac565b600660008473ffffffffffffffffffffffffffffffffffffffff1673ffffffffffffffffffffffffffffffffffffffff168152602001908152602001600020805490509050600660008473ffffffffffffffffffffffffffffffffffffffff1673ffffffffffffffffffffffffffffffffffffffff168152602001908152602001600020829080600181540180825580915050906001820390600052602060002001600090919290919091505550806007600084815260200190815260200160002081905550505050565b612e9482600b836040518082805190602001908083835b602083101515612e535780518252602082019150602081019050602083039250612e2e565b6001836020036101000a038019825116818451168082178552505050505050905001915050908152602001604051809103902061380490919063ffffffff16565b7fd211483f91fc6eff862467f8de606587a30c8fc9981056f051b897a418df803a8282604051808373ffffffffffffffffffffffffffffffffffffffff1673ffffffffffffffffffffffffffffffffffffffff16815260200180602001828103825283818151815260200191508051906020019080838360005b83811015612f29578082015181840152602081019050612f0e565b50505050905090810190601f168015612f565780820380516001836020036101000a031916815260200191505b50935050505060405180910390a15050565b600080600060116000858152602001908152602001600020549250612fd96001601060008873ffffffffffffffffffffffffffffffffffffffff1673ffffffffffffffffffffffffffffffffffffffff1681526020019081526020016000208054905061369390919063ffffffff16565b9150601060008673ffffffffffffffffffffffffffffffffffffffff1673ffffffffffffffffffffffffffffffffffffffff1681526020019081526020016000208281548110151561302757fe5b9060005260206000200154905080601060008773ffffffffffffffffffffffffffffffffffffffff1673ffffffffffffffffffffffffffffffffffffffff1681526020019081526020016000208481548110151561308157fe5b90600052602060002001819055506000601060008773ffffffffffffffffffffffffffffffffffffffff1673ffffffffffffffffffffffffffffffffffffffff168152602001908152602001600020838154811015156130dd57fe5b9060005260206000200181905550601060008673ffffffffffffffffffffffffffffffffffffffff1673ffffffffffffffffffffffffffffffffffffffff16815260200190815260200160002080548091906001900361313d91906138ef565b50600060116000868152602001908152602001600020819055508260116000838152602001908152602001600020819055505050505050565b6131f382600b836040518082805190602001908083835b6020831015156131b2578051825260208201915060208101905060208303925061318d565b6001836020036101000a038019825116818451168082178552505050505050905001915050908152602001604051809103902061386290919063ffffffff16565b7fbfec83d64eaa953f2708271a023ab9ee82057f8f3578d548c1a4ba0b5b7004898282604051808373ffffffffffffffffffffffffffffffffffffffff1673ffffffffffffffffffffffffffffffffffffffff16815260200180602001828103825283818151815260200191508051906020019080838360005b8381101561328857808201518184015260208101905061326d565b50505050905090810190601f1680156132b55780820380516001836020036101000a031916815260200191505b50935050505060405180910390a15050565b6000806132e98573ffffffffffffffffffffffffffffffffffffffff166138c0565b15156132f857600191506134ac565b8473ffffffffffffffffffffffffffffffffffffffff1663f0b9e5ba8786866040518463ffffffff167c0100000000000000000000000000000000000000000000000000000000028152600401808473ffffffffffffffffffffffffffffffffffffffff1673ffffffffffffffffffffffffffffffffffffffff16815260200183815260200180602001828103825283818151815260200191508051906020019080838360005b838110156133ba57808201518184015260208101905061339f565b50505050905090810190601f1680156133e75780820380516001836020036101000a031916815260200191505b50945050505050602060405180830381600087803b15801561340857600080fd5b505af115801561341c573d6000803e3d6000fd5b505050506040513d602081101561343257600080fd5b8101908080519060200190929190505050905063f0b9e5ba7c0100000000000000000000000000000000000000000000000000000000027bffffffffffffffffffffffffffffffffffffffffffffffffffffffff1916817bffffffffffffffffffffffffffffffffffffffffffffffffffffffff19161491505b50949350505050565b600073ffffffffffffffffffffffffffffffffffffffff168273ffffffffffffffffffffffffffffffffffffffff16141515156134f157600080fd5b6134fb8282612d40565b8173ffffffffffffffffffffffffffffffffffffffff16600073ffffffffffffffffffffffffffffffffffffffff167fddf252ad1be2c89b69c2b068fc378daa952ba7f163c4a11628f55a4df523b3ef836040518082815260200191505060405180910390a35050565b8173ffffffffffffffffffffffffffffffffffffffff1661358582611a2f565b73ffffffffffffffffffffffffffffffffffffffff161415156135a757600080fd5b6135fa6001600260008573ffffffffffffffffffffffffffffffffffffffff1673ffffffffffffffffffffffffffffffffffffffff1681526020019081526020016000205461369390919063ffffffff16565b600260008473ffffffffffffffffffffffffffffffffffffffff1673ffffffffffffffffffffffffffffffffffffffff16815260200190815260200160002081905550600080600083815260200190815260200160002060006101000a81548173ffffffffffffffffffffffffffffffffffffffff021916908373ffffffffffffffffffffffffffffffffffffffff1602179055505050565b60008282111515156136a157fe5b818303905092915050565b600073ffffffffffffffffffffffffffffffffffffffff1660008083815260200190815260200160002060009054906101000a900473ffffffffffffffffffffffffffffffffffffffff1673ffffffffffffffffffffffffffffffffffffffff1614151561371957600080fd5b8160008083815260200190815260200160002060006101000a81548173ffffffffffffffffffffffffffffffffffffffff021916908373ffffffffffffffffffffffffffffffffffffffff1602179055506137bd6001600260008573ffffffffffffffffffffffffffffffffffffffff1673ffffffffffffffffffffffffffffffffffffffff168152602001908152602001600020546138d390919063ffffffff16565b600260008473ffffffffffffffffffffffffffffffffffffffff1673ffffffffffffffffffffffffffffffffffffffff168152602001908152602001600020819055505050565b60008260000160008373ffffffffffffffffffffffffffffffffffffffff1673ffffffffffffffffffffffffffffffffffffffff16815260200190815260200160002060006101000a81548160ff0219169083151502179055505050565b60018260000160008373ffffffffffffffffffffffffffffffffffffffff1673ffffffffffffffffffffffffffffffffffffffff16815260200190815260200160002060006101000a81548160ff0219169083151502179055505050565b600080823b905060008111915050919050565b600081830190508281101515156138e657fe5b80905092915050565b81548183558181111561391657818360005260206000209182019101613915919061391b565b5b505050565b61393d91905b80821115613939576000816000905550600101613921565b5090565b905600a165627a7a723058204ba8d59528bf36f570f1c115650098b07eb481af20fe9968dca0d8ca12cf73cd0029",
  "source": "pragma solidity ^0.4.21;\n\nimport \"./zeppelin/ERC721/ERC721Token.sol\";\nimport \"./zeppelin/rbac/RBACWithAdmin.sol\";\nimport \"./zeppelin/Ownable.sol\";\nimport \"./zeppelin/SafeMath.sol\";\n\ncontract Organ is ERC721Token, RBACWithAdmin, Ownable {\n\n    string public constant ROLE_SIGNER = \"signer\";\n    string public constant ROLE_OPO = \"opo\";\n\n    struct Signatures {\n        bool submitted;\n        bool[3] signatures;\n        bool finished;\n        uint256 sigsCollected;\n    }\n\n    struct MetaData {\n        address donor;\n        bytes32 bloodType;\n        uint256 size;\n        uint256 averageTemperature;\n        address recipient;\n        uint256 expiration;\n        bool delivered;\n    }\n\n    mapping (uint256 => Signatures) pendingSubmissions;\n    mapping (uint256 => bool) createdOrgans;\n    mapping (uint256 => MetaData) public tokenIdToMetaData;\n    mapping (address => uint256[]) internal approvedTokens;\n    mapping (uint256 => uint256) internal approvedTokensIndex;\n\n    uint256 public totalSubmissions;\n\n    event Submission(address indexed submitter, uint256 indexed id, uint256 timestamp);\n    event Sign(address indexed signer, uint256 indexed id, uint256 numSignature);\n    event SubmissionFinished(uint256 indexed id);\n    event OrganMinted(address indexed minter, uint256 indexed id, address indexed recipient, uint256 timestamp, uint256 expiration);\n    event Delivered(address indexed recipient, uint256 indexed id, uint256 timestamp);\n\n    constructor() ERC721Token(\"Organ\", \"ORGAN\") public {}\n\n    function addSigner(address _signer) onlyAdmin public {\n        adminAddRole(_signer, ROLE_SIGNER);\n    }\n\n    function addOpo(address _opo) onlyAdmin public {\n        adminAddRole(_opo, ROLE_OPO);\n    }\n\n    function submitOrgan(address _donor, bytes32 _bloodType, uint256 _size) onlyRole(ROLE_OPO) public {\n        uint256 id = totalSubmissions;\n\n        pendingSubmissions[id].submitted = true;\n        pendingSubmissions[id].sigsCollected = 0;\n        tokenIdToMetaData[id].donor = _donor;\n        tokenIdToMetaData[id].bloodType = _bloodType;\n        tokenIdToMetaData[id].size = _size;\n        emit Submission(msg.sender, id, block.timestamp);\n\n        totalSubmissions++;\n    }\n\n    function signSubmission(uint256 _id) onlyRole(ROLE_SIGNER) public {\n        require(pendingSubmissions[_id].submitted == true && pendingSubmissions[_id].finished == false);\n\n        Signatures storage signature = pendingSubmissions[_id];\n\n        uint256 numSignature = signature.sigsCollected;\n        signature.signatures[numSignature] = true;\n        emit Sign(msg.sender, _id, numSignature++);\n\n        signature.sigsCollected++;\n        numSignature = signature.sigsCollected;\n        if(numSignature == 3) {\n            signature.finished = true;\n            emit SubmissionFinished(_id);\n        }\n    }\n\n    function mintOrgan(uint256 _id, address _recipient, uint256 _expiration) onlyRole(ROLE_OPO) public {\n        require(pendingSubmissions[_id].finished && !createdOrgans[_id]);\n\n        _mint(msg.sender, _id);\n\n        tokenIdToMetaData[_id].recipient = _recipient;\n        tokenIdToMetaData[_id].expiration = _expiration;\n\n        emit OrganMinted(msg.sender, _id, _recipient, block.timestamp, _expiration);\n    }\n\n    function tokenOfApprovalByIndex(address _owner, uint256 _index) public view returns (uint256) {\n        require(_index < approvedTokens[_owner].length);\n        return approvedTokens[_owner][_index];\n    }\n\n    function approve(address _to, uint256 _tokenId) public {\n        super.approve(_to, _tokenId);\n        addTokenToApproval(_to, _tokenId);\n    }\n\n    function _transferFrom(address _from, address _to, uint256 _tokenId, uint256 _averageTemperature) public {\n        super.transferFrom(_from, _to, _tokenId);\n        removeTokenFromApproval(_to, _tokenId);\n\n        tokenIdToMetaData[_tokenId].averageTemperature = _averageTemperature;\n\n        if(msg.sender == tokenIdToMetaData[_tokenId].recipient) {\n            tokenIdToMetaData[_tokenId].delivered = true;\n            emit Delivered(_to, _tokenId, block.timestamp);\n        }\n\n    }\n\n    function getMetaData(uint256 _id) public view returns(address,\n                                                          bytes32,\n                                                          uint256,\n                                                          uint256,\n                                                          address,\n                                                          uint256,\n                                                          bool) {\n        MetaData storage metadata = tokenIdToMetaData[_id];\n\n        return(\n            metadata.donor,\n            metadata.bloodType,\n            metadata.size,\n            metadata.averageTemperature,\n            metadata.recipient,\n            metadata.expiration,\n            metadata.delivered\n        );\n\n    }\n\n    function addTokenToApproval(address _to, uint256 _tokenId) internal {\n        uint256 length = approvedTokens[_to].length;\n        approvedTokens[_to].push(_tokenId);\n        approvedTokensIndex[_tokenId] = length;\n    }\n\n    function removeTokenFromApproval(address _from, uint256 _tokenId) internal {\n        uint256 tokenIndex = approvedTokensIndex[_tokenId];\n        uint256 lastTokenIndex = approvedTokens[_from].length.sub(1);\n        uint256 lastToken = approvedTokens[_from][lastTokenIndex];\n\n        approvedTokens[_from][tokenIndex] = lastToken;\n        approvedTokens[_from][lastTokenIndex] = 0;\n        // Note that this will handle single-element arrays. In that case, both tokenIndex and lastTokenIndex are going to\n        // be zero. Then we can make sure that we will remove _tokenId from the ownedTokens list since we are first swapping\n        // the lastToken to the first position, and then dropping the element placed in the last position of the list\n\n        approvedTokens[_from].length--;\n        approvedTokensIndex[_tokenId] = 0;\n        approvedTokensIndex[lastToken] = tokenIndex;\n    }\n}",
  "sourcePath": "/Users/saurfang/workspace/OrganTrail/contracts/Organ.sol",
  "compiler": {
    "name": "solc",
    "version": "0.4.23+commit.124ca40d.Emscripten.clang"
  },
  "schemaVersion": "2.0.0",
  "updatedAt": "2018-05-19T22:09:39.514Z"
}