{
  "contractName": "Organ",
  "abi": [
    {
      "constant": true,
      "inputs": [],
      "name": "name",
      "outputs": [
        {
          "name": "",
          "type": "string"
        }
      ],
      "payable": false,
      "stateMutability": "view",
      "type": "function"
    },
    {
      "constant": true,
      "inputs": [
        {
          "name": "_tokenId",
          "type": "uint256"
        }
      ],
      "name": "getApproved",
      "outputs": [
        {
          "name": "",
          "type": "address"
        }
      ],
      "payable": false,
      "stateMutability": "view",
      "type": "function"
    },
    {
      "constant": true,
      "inputs": [
        {
          "name": "addr",
          "type": "address"
        },
        {
          "name": "roleName",
          "type": "string"
        }
      ],
      "name": "checkRole",
      "outputs": [],
      "payable": false,
      "stateMutability": "view",
      "type": "function"
    },
    {
      "constant": true,
      "inputs": [],
      "name": "totalSupply",
      "outputs": [
        {
          "name": "",
          "type": "uint256"
        }
      ],
      "payable": false,
      "stateMutability": "view",
      "type": "function"
    },
    {
      "constant": true,
      "inputs": [
        {
          "name": "addr",
          "type": "address"
        },
        {
          "name": "roleName",
          "type": "string"
        }
      ],
      "name": "hasRole",
      "outputs": [
        {
          "name": "",
          "type": "bool"
        }
      ],
      "payable": false,
      "stateMutability": "view",
      "type": "function"
    },
    {
      "constant": true,
      "inputs": [
        {
          "name": "_owner",
          "type": "address"
        },
        {
          "name": "_index",
          "type": "uint256"
        }
      ],
      "name": "tokenOfOwnerByIndex",
      "outputs": [
        {
          "name": "",
          "type": "uint256"
        }
      ],
      "payable": false,
      "stateMutability": "view",
      "type": "function"
    },
    {
      "constant": false,
      "inputs": [
        {
          "name": "_from",
          "type": "address"
        },
        {
          "name": "_to",
          "type": "address"
        },
        {
          "name": "_tokenId",
          "type": "uint256"
        }
      ],
      "name": "safeTransferFrom",
      "outputs": [],
      "payable": false,
      "stateMutability": "nonpayable",
      "type": "function"
    },
    {
      "constant": true,
      "inputs": [
        {
          "name": "_tokenId",
          "type": "uint256"
        }
      ],
      "name": "exists",
      "outputs": [
        {
          "name": "",
          "type": "bool"
        }
      ],
      "payable": false,
      "stateMutability": "view",
      "type": "function"
    },
    {
      "constant": true,
      "inputs": [
        {
          "name": "_index",
          "type": "uint256"
        }
      ],
      "name": "tokenByIndex",
      "outputs": [
        {
          "name": "",
          "type": "uint256"
        }
      ],
      "payable": false,
      "stateMutability": "view",
      "type": "function"
    },
    {
      "constant": true,
      "inputs": [
        {
          "name": "",
          "type": "uint256"
        }
      ],
      "name": "tokenIdToMetaData",
      "outputs": [
        {
          "name": "donor",
          "type": "address"
        },
        {
          "name": "recipient",
          "type": "address"
        },
        {
          "name": "expiration",
          "type": "uint256"
        },
        {
          "name": "delivered",
          "type": "bool"
        }
      ],
      "payable": false,
      "stateMutability": "view",
      "type": "function"
    },
    {
      "constant": true,
      "inputs": [
        {
          "name": "_tokenId",
          "type": "uint256"
        }
      ],
      "name": "ownerOf",
      "outputs": [
        {
          "name": "",
          "type": "address"
        }
      ],
      "payable": false,
      "stateMutability": "view",
      "type": "function"
    },
    {
      "constant": true,
      "inputs": [
        {
          "name": "_owner",
          "type": "address"
        }
      ],
      "name": "balanceOf",
      "outputs": [
        {
          "name": "",
          "type": "uint256"
        }
      ],
      "payable": false,
      "stateMutability": "view",
      "type": "function"
    },
    {
      "constant": false,
      "inputs": [
        {
          "name": "addr",
          "type": "address"
        },
        {
          "name": "roleName",
          "type": "string"
        }
      ],
      "name": "adminRemoveRole",
      "outputs": [],
      "payable": false,
      "stateMutability": "nonpayable",
      "type": "function"
    },
    {
      "constant": true,
      "inputs": [],
      "name": "owner",
      "outputs": [
        {
          "name": "",
          "type": "address"
        }
      ],
      "payable": false,
      "stateMutability": "view",
      "type": "function"
    },
    {
      "constant": true,
      "inputs": [],
      "name": "symbol",
      "outputs": [
        {
          "name": "",
          "type": "string"
        }
      ],
      "payable": false,
      "stateMutability": "view",
      "type": "function"
    },
    {
      "constant": false,
      "inputs": [
        {
          "name": "_to",
          "type": "address"
        },
        {
          "name": "_approved",
          "type": "bool"
        }
      ],
      "name": "setApprovalForAll",
      "outputs": [],
      "payable": false,
      "stateMutability": "nonpayable",
      "type": "function"
    },
    {
      "constant": true,
      "inputs": [],
      "name": "totalSubmissions",
      "outputs": [
        {
          "name": "",
          "type": "uint256"
        }
      ],
      "payable": false,
      "stateMutability": "view",
      "type": "function"
    },
    {
      "constant": true,
      "inputs": [],
      "name": "ROLE_SIGNER",
      "outputs": [
        {
          "name": "",
          "type": "string"
        }
      ],
      "payable": false,
      "stateMutability": "view",
      "type": "function"
    },
    {
      "constant": false,
      "inputs": [
        {
          "name": "addr",
          "type": "address"
        },
        {
          "name": "roleName",
          "type": "string"
        }
      ],
      "name": "adminAddRole",
      "outputs": [],
      "payable": false,
      "stateMutability": "nonpayable",
      "type": "function"
    },
    {
      "constant": false,
      "inputs": [
        {
          "name": "_from",
          "type": "address"
        },
        {
          "name": "_to",
          "type": "address"
        },
        {
          "name": "_tokenId",
          "type": "uint256"
        },
        {
          "name": "_data",
          "type": "bytes"
        }
      ],
      "name": "safeTransferFrom",
      "outputs": [],
      "payable": false,
      "stateMutability": "nonpayable",
      "type": "function"
    },
    {
      "constant": true,
      "inputs": [
        {
          "name": "_tokenId",
          "type": "uint256"
        }
      ],
      "name": "tokenURI",
      "outputs": [
        {
          "name": "",
          "type": "string"
        }
      ],
      "payable": false,
      "stateMutability": "view",
      "type": "function"
    },
    {
      "constant": true,
      "inputs": [],
      "name": "ROLE_ADMIN",
      "outputs": [
        {
          "name": "",
          "type": "string"
        }
      ],
      "payable": false,
      "stateMutability": "view",
      "type": "function"
    },
    {
      "constant": true,
      "inputs": [],
      "name": "ROLE_OPO",
      "outputs": [
        {
          "name": "",
          "type": "string"
        }
      ],
      "payable": false,
      "stateMutability": "view",
      "type": "function"
    },
    {
      "constant": true,
      "inputs": [
        {
          "name": "_owner",
          "type": "address"
        },
        {
          "name": "_operator",
          "type": "address"
        }
      ],
      "name": "isApprovedForAll",
      "outputs": [
        {
          "name": "",
          "type": "bool"
        }
      ],
      "payable": false,
      "stateMutability": "view",
      "type": "function"
    },
    {
      "constant": false,
      "inputs": [
        {
          "name": "newOwner",
          "type": "address"
        }
      ],
      "name": "transferOwnership",
      "outputs": [],
      "payable": false,
      "stateMutability": "nonpayable",
      "type": "function"
    },
    {
      "inputs": [],
      "payable": false,
      "stateMutability": "nonpayable",
      "type": "constructor"
    },
    {
      "anonymous": false,
      "inputs": [
        {
          "indexed": true,
          "name": "submitter",
          "type": "address"
        },
        {
          "indexed": true,
          "name": "id",
          "type": "uint256"
        },
        {
          "indexed": false,
          "name": "timestamp",
          "type": "uint256"
        }
      ],
      "name": "Submission",
      "type": "event"
    },
    {
      "anonymous": false,
      "inputs": [
        {
          "indexed": true,
          "name": "signer",
          "type": "address"
        },
        {
          "indexed": true,
          "name": "id",
          "type": "uint256"
        },
        {
          "indexed": false,
          "name": "numSignature",
          "type": "uint256"
        }
      ],
      "name": "Sign",
      "type": "event"
    },
    {
      "anonymous": false,
      "inputs": [
        {
          "indexed": true,
          "name": "id",
          "type": "uint256"
        }
      ],
      "name": "SubmissionFinished",
      "type": "event"
    },
    {
      "anonymous": false,
      "inputs": [
        {
          "indexed": true,
          "name": "minter",
          "type": "address"
        },
        {
          "indexed": true,
          "name": "id",
          "type": "uint256"
        },
        {
          "indexed": true,
          "name": "recipient",
          "type": "address"
        },
        {
          "indexed": false,
          "name": "timestamp",
          "type": "uint256"
        },
        {
          "indexed": false,
          "name": "expiration",
          "type": "uint256"
        }
      ],
      "name": "OrganMinted",
      "type": "event"
    },
    {
      "anonymous": false,
      "inputs": [
        {
          "indexed": true,
          "name": "previousOwner",
          "type": "address"
        },
        {
          "indexed": true,
          "name": "newOwner",
          "type": "address"
        }
      ],
      "name": "OwnershipTransferred",
      "type": "event"
    },
    {
      "anonymous": false,
      "inputs": [
        {
          "indexed": false,
          "name": "addr",
          "type": "address"
        },
        {
          "indexed": false,
          "name": "roleName",
          "type": "string"
        }
      ],
      "name": "RoleAdded",
      "type": "event"
    },
    {
      "anonymous": false,
      "inputs": [
        {
          "indexed": false,
          "name": "addr",
          "type": "address"
        },
        {
          "indexed": false,
          "name": "roleName",
          "type": "string"
        }
      ],
      "name": "RoleRemoved",
      "type": "event"
    },
    {
      "anonymous": false,
      "inputs": [
        {
          "indexed": true,
          "name": "_from",
          "type": "address"
        },
        {
          "indexed": true,
          "name": "_to",
          "type": "address"
        },
        {
          "indexed": false,
          "name": "_tokenId",
          "type": "uint256"
        }
      ],
      "name": "Transfer",
      "type": "event"
    },
    {
      "anonymous": false,
      "inputs": [
        {
          "indexed": true,
          "name": "_owner",
          "type": "address"
        },
        {
          "indexed": true,
          "name": "_approved",
          "type": "address"
        },
        {
          "indexed": false,
          "name": "_tokenId",
          "type": "uint256"
        }
      ],
      "name": "Approval",
      "type": "event"
    },
    {
      "anonymous": false,
      "inputs": [
        {
          "indexed": true,
          "name": "_owner",
          "type": "address"
        },
        {
          "indexed": true,
          "name": "_operator",
          "type": "address"
        },
        {
          "indexed": false,
          "name": "_approved",
          "type": "bool"
        }
      ],
      "name": "ApprovalForAll",
      "type": "event"
    },
    {
      "constant": false,
      "inputs": [
        {
          "name": "_signer",
          "type": "address"
        }
      ],
      "name": "addSigner",
      "outputs": [],
      "payable": false,
      "stateMutability": "nonpayable",
      "type": "function"
    },
    {
      "constant": false,
      "inputs": [
        {
          "name": "_opo",
          "type": "address"
        }
      ],
      "name": "addOpo",
      "outputs": [],
      "payable": false,
      "stateMutability": "nonpayable",
      "type": "function"
    },
    {
      "constant": false,
      "inputs": [],
      "name": "submitOrgan",
      "outputs": [],
      "payable": false,
      "stateMutability": "nonpayable",
      "type": "function"
    },
    {
      "constant": false,
      "inputs": [
        {
          "name": "_id",
          "type": "uint256"
        }
      ],
      "name": "signSubmission",
      "outputs": [],
      "payable": false,
      "stateMutability": "nonpayable",
      "type": "function"
    },
    {
      "constant": false,
      "inputs": [
        {
          "name": "_id",
          "type": "uint256"
        },
        {
          "name": "_donor",
          "type": "address"
        },
        {
          "name": "_recipient",
          "type": "address"
        },
        {
          "name": "_expiration",
          "type": "uint256"
        }
      ],
      "name": "mintOrgan",
      "outputs": [],
      "payable": false,
      "stateMutability": "nonpayable",
      "type": "function"
    },
    {
      "constant": true,
      "inputs": [
        {
          "name": "_owner",
          "type": "address"
        },
        {
          "name": "_index",
          "type": "uint256"
        }
      ],
      "name": "tokenOfApprovalByIndex",
      "outputs": [
        {
          "name": "",
          "type": "uint256"
        }
      ],
      "payable": false,
      "stateMutability": "view",
      "type": "function"
    },
    {
      "constant": false,
      "inputs": [
        {
          "name": "_to",
          "type": "address"
        },
        {
          "name": "_tokenId",
          "type": "uint256"
        }
      ],
      "name": "approve",
      "outputs": [],
      "payable": false,
      "stateMutability": "nonpayable",
      "type": "function"
    },
    {
      "constant": false,
      "inputs": [
        {
          "name": "_from",
          "type": "address"
        },
        {
          "name": "_to",
          "type": "address"
        },
        {
          "name": "_tokenId",
          "type": "uint256"
        }
      ],
      "name": "transferFrom",
      "outputs": [],
      "payable": false,
      "stateMutability": "nonpayable",
      "type": "function"
    }
  ],
  "bytecode": "0x60806040523480156200001157600080fd5b506040805190810160405280600581526020017f4f7267616e0000000000000000000000000000000000000000000000000000008152506040805190810160405280600581526020017f4f5247414e0000000000000000000000000000000000000000000000000000008152508160049080519060200190620000969291906200030d565b508060059080519060200190620000af9291906200030d565b50505062000102336040805190810160405280600581526020017f61646d696e00000000000000000000000000000000000000000000000000000081525062000149640100000000026401000000009004565b33600c60006101000a81548173ffffffffffffffffffffffffffffffffffffffff021916908373ffffffffffffffffffffffffffffffffffffffff160217905550620003bc565b620001d882600b836040518082805190602001908083835b60208310151562000188578051825260208201915060208101905060208303925062000161565b6001836020036101000a0380198251168184511680821785525050505050509050019150509081526020016040518091039020620002af64010000000002620032db179091906401000000009004565b7fbfec83d64eaa953f2708271a023ab9ee82057f8f3578d548c1a4ba0b5b7004898282604051808373ffffffffffffffffffffffffffffffffffffffff1673ffffffffffffffffffffffffffffffffffffffff16815260200180602001828103825283818151815260200191508051906020019080838360005b838110156200026f57808201518184015260208101905062000252565b50505050905090810190601f1680156200029d5780820380516001836020036101000a031916815260200191505b50935050505060405180910390a15050565b60018260000160008373ffffffffffffffffffffffffffffffffffffffff1673ffffffffffffffffffffffffffffffffffffffff16815260200190815260200160002060006101000a81548160ff0219169083151502179055505050565b828054600181600116156101000203166002900490600052602060002090601f016020900481019282601f106200035057805160ff191683800117855562000381565b8280016001018555821562000381579182015b828111156200038057825182559160200191906001019062000363565b5b50905062000390919062000394565b5090565b620003b991905b80821115620003b55760008160009055506001016200039b565b5090565b90565b61366b80620003cc6000396000f3006080604052600436106101a1576000357c0100000000000000000000000000000000000000000000000000000000900463ffffffff16806306fdde03146101a6578063081812fc14610236578063095ea7b3146102a35780630988ca8c146102f057806318160ddd14610379578063217fe6c6146103a457806323b872dd146104455780632f745c59146104b257806335e28ea41461051357806342842e0e146105405780634f558e79146105ad5780634f6ccce7146105f25780634ff38e48146106335780635d843776146106e55780636352211e146106fc57806370a082311461076957806388cee87e146107c05780638da5cb5b1461084957806395d89b41146108a0578063a22cb46514610930578063a39540161461097f578063a50781d4146109aa578063af2371e3146109ed578063b0b3236814610a7d578063b25fa92c14610af4578063b88d4fde14610b7d578063c87b56dd14610c30578063d391014b14610cd6578063dd878d9814610d66578063e985e9c514610df6578063eb12d61e14610e71578063ec77078614610eb4578063f2fde38b14610f15575b600080fd5b3480156101b257600080fd5b506101bb610f58565b6040518080602001828103825283818151815260200191508051906020019080838360005b838110156101fb5780820151818401526020810190506101e0565b50505050905090810190601f1680156102285780820380516001836020036101000a031916815260200191505b509250505060405180910390f35b34801561024257600080fd5b5061026160048036038101908080359060200190929190505050610ffa565b604051808273ffffffffffffffffffffffffffffffffffffffff1673ffffffffffffffffffffffffffffffffffffffff16815260200191505060405180910390f35b3480156102af57600080fd5b506102ee600480360381019080803573ffffffffffffffffffffffffffffffffffffffff16906020019092919080359060200190929190505050611037565b005b3480156102fc57600080fd5b50610377600480360381019080803573ffffffffffffffffffffffffffffffffffffffff169060200190929190803590602001908201803590602001908080601f016020809104026020016040519081016040528093929190818152602001838380828437820191505050505050919291929050505061104f565b005b34801561038557600080fd5b5061038e6110d0565b6040518082815260200191505060405180910390f35b3480156103b057600080fd5b5061042b600480360381019080803573ffffffffffffffffffffffffffffffffffffffff169060200190929190803590602001908201803590602001908080601f01602080910402602001604051908101604052809392919081815260200183838082843782019150505050505091929192905050506110dd565b604051808215151515815260200191505060405180910390f35b34801561045157600080fd5b506104b0600480360381019080803573ffffffffffffffffffffffffffffffffffffffff169060200190929190803573ffffffffffffffffffffffffffffffffffffffff16906020019092919080359060200190929190505050611164565b005b3480156104be57600080fd5b506104fd600480360381019080803573ffffffffffffffffffffffffffffffffffffffff16906020019092919080359060200190929190505050611218565b6040518082815260200191505060405180910390f35b34801561051f57600080fd5b5061053e6004803603810190808035906020019092919050505061128f565b005b34801561054c57600080fd5b506105ab600480360381019080803573ffffffffffffffffffffffffffffffffffffffff169060200190929190803573ffffffffffffffffffffffffffffffffffffffff16906020019092919080359060200190929190505050611453565b005b3480156105b957600080fd5b506105d86004803603810190808035906020019092919050505061148b565b604051808215151515815260200191505060405180910390f35b3480156105fe57600080fd5b5061061d600480360381019080803590602001909291905050506114fc565b6040518082815260200191505060405180910390f35b34801561063f57600080fd5b5061065e60048036038101908080359060200190929190505050611534565b604051808573ffffffffffffffffffffffffffffffffffffffff1673ffffffffffffffffffffffffffffffffffffffff1681526020018473ffffffffffffffffffffffffffffffffffffffff1673ffffffffffffffffffffffffffffffffffffffff1681526020018381526020018215151515815260200194505050505060405180910390f35b3480156106f157600080fd5b506106fa6115b1565b005b34801561070857600080fd5b50610727600480360381019080803590602001909291905050506116a8565b604051808273ffffffffffffffffffffffffffffffffffffffff1673ffffffffffffffffffffffffffffffffffffffff16815260200191505060405180910390f35b34801561077557600080fd5b506107aa600480360381019080803573ffffffffffffffffffffffffffffffffffffffff169060200190929190505050611725565b6040518082815260200191505060405180910390f35b3480156107cc57600080fd5b50610847600480360381019080803573ffffffffffffffffffffffffffffffffffffffff169060200190929190803590602001908201803590602001908080601f01602080910402602001604051908101604052809392919081815260200183838082843782019150505050505091929192905050506117a9565b005b34801561085557600080fd5b5061085e6117f6565b604051808273ffffffffffffffffffffffffffffffffffffffff1673ffffffffffffffffffffffffffffffffffffffff16815260200191505060405180910390f35b3480156108ac57600080fd5b506108b561181c565b6040518080602001828103825283818151815260200191508051906020019080838360005b838110156108f55780820151818401526020810190506108da565b50505050905090810190601f1680156109225780820380516001836020036101000a031916815260200191505b509250505060405180910390f35b34801561093c57600080fd5b5061097d600480360381019080803573ffffffffffffffffffffffffffffffffffffffff1690602001909291908035151590602001909291905050506118be565b005b34801561098b57600080fd5b506109946119fa565b6040518082815260200191505060405180910390f35b3480156109b657600080fd5b506109eb600480360381019080803573ffffffffffffffffffffffffffffffffffffffff169060200190929190505050611a00565b005b3480156109f957600080fd5b50610a02611a81565b6040518080602001828103825283818151815260200191508051906020019080838360005b83811015610a42578082015181840152602081019050610a27565b50505050905090810190601f168015610a6f5780820380516001836020036101000a031916815260200191505b509250505060405180910390f35b348015610a8957600080fd5b50610af260048036038101908080359060200190929190803573ffffffffffffffffffffffffffffffffffffffff169060200190929190803573ffffffffffffffffffffffffffffffffffffffff16906020019092919080359060200190929190505050611aba565b005b348015610b0057600080fd5b50610b7b600480360381019080803573ffffffffffffffffffffffffffffffffffffffff169060200190929190803590602001908201803590602001908080601f0160208091040260200160405190810160405280939291908181526020018383808284378201915050505050509192919290505050611c97565b005b348015610b8957600080fd5b50610c2e600480360381019080803573ffffffffffffffffffffffffffffffffffffffff169060200190929190803573ffffffffffffffffffffffffffffffffffffffff16906020019092919080359060200190929190803590602001908201803590602001908080601f0160208091040260200160405190810160405280939291908181526020018383808284378201915050505050509192919290505050611ce4565b005b348015610c3c57600080fd5b50610c5b60048036038101908080359060200190929190505050611d23565b6040518080602001828103825283818151815260200191508051906020019080838360005b83811015610c9b578082015181840152602081019050610c80565b50505050905090810190601f168015610cc85780820380516001836020036101000a031916815260200191505b509250505060405180910390f35b348015610ce257600080fd5b50610ceb611dec565b6040518080602001828103825283818151815260200191508051906020019080838360005b83811015610d2b578082015181840152602081019050610d10565b50505050905090810190601f168015610d585780820380516001836020036101000a031916815260200191505b509250505060405180910390f35b348015610d7257600080fd5b50610d7b611e25565b6040518080602001828103825283818151815260200191508051906020019080838360005b83811015610dbb578082015181840152602081019050610da0565b50505050905090810190601f168015610de85780820380516001836020036101000a031916815260200191505b509250505060405180910390f35b348015610e0257600080fd5b50610e57600480360381019080803573ffffffffffffffffffffffffffffffffffffffff169060200190929190803573ffffffffffffffffffffffffffffffffffffffff169060200190929190505050611e5e565b604051808215151515815260200191505060405180910390f35b348015610e7d57600080fd5b50610eb2600480360381019080803573ffffffffffffffffffffffffffffffffffffffff169060200190929190505050611ef2565b005b348015610ec057600080fd5b50610eff600480360381019080803573ffffffffffffffffffffffffffffffffffffffff16906020019092919080359060200190929190505050611f73565b6040518082815260200191505060405180910390f35b348015610f2157600080fd5b50610f56600480360381019080803573ffffffffffffffffffffffffffffffffffffffff169060200190929190505050612024565b005b606060048054600181600116156101000203166002900480601f016020809104026020016040519081016040528092919081815260200182805460018160011615610100020316600290048015610ff05780601f10610fc557610100808354040283529160200191610ff0565b820191906000526020600020905b815481529060010190602001808311610fd357829003601f168201915b5050505050905090565b60006001600083815260200190815260200160002060009054906101000a900473ffffffffffffffffffffffffffffffffffffffff169050919050565b611041828261217c565b61104b8282612342565b5050565b6110cc82600b836040518082805190602001908083835b60208310151561108b5780518252602082019150602081019050602083039250611066565b6001836020036101000a038019825116818451168082178552505050505050905001915050908152602001604051809103902061240f90919063ffffffff16565b5050565b6000600880549050905090565b600061115c83600b846040518082805190602001908083835b60208310151561111b57805182526020820191506020810190506020830392506110f6565b6001836020036101000a038019825116818451168082178552505050505050905001915050908152602001604051809103902061242890919063ffffffff16565b905092915050565b61116f838383612481565b61117982826125d2565b600f600082815260200190815260200160002060010160009054906101000a900473ffffffffffffffffffffffffffffffffffffffff1673ffffffffffffffffffffffffffffffffffffffff163373ffffffffffffffffffffffffffffffffffffffff161415611213576001600f600083815260200190815260200160002060030160006101000a81548160ff0219169083151502179055505b505050565b600061122383611725565b8210151561123057600080fd5b600660008473ffffffffffffffffffffffffffffffffffffffff1673ffffffffffffffffffffffffffffffffffffffff1681526020019081526020016000208281548110151561127c57fe5b9060005260206000200154905092915050565b6000806040805190810160405280600681526020017f7369676e657200000000000000000000000000000000000000000000000000008152506112d2338261104f565b60011515600d600086815260200190815260200160002060000160009054906101000a900460ff161515148015611330575060001515600d600086815260200190815260200160002060020160009054906101000a900460ff161515145b151561133b57600080fd5b600d60008581526020019081526020016000209250826003015491506001836001018360038110151561136a57fe5b602091828204019190066101000a81548160ff021916908315150217905550833373ffffffffffffffffffffffffffffffffffffffff167f6606a8bb80a4c7f8f56d2eb4774e6b48ad1d979612a8c130bc4c80538175a08d848060010195506040518082815260200191505060405180910390a3826003016000815480929190600101919050555082600301549150600382141561144d5760018360020160006101000a81548160ff021916908315150217905550837f34817f21c66e44450a81ed1ab61bea1d6d7e478e632202c35f396f29139f5b9160405160405180910390a25b50505050565b8061145e33826127e0565b151561146957600080fd5b6114858484846020604051908101604052806000815250611ce4565b50505050565b60008060008084815260200190815260200160002060009054906101000a900473ffffffffffffffffffffffffffffffffffffffff169050600073ffffffffffffffffffffffffffffffffffffffff168173ffffffffffffffffffffffffffffffffffffffff161415915050919050565b60006115066110d0565b8210151561151357600080fd5b60088281548110151561152257fe5b90600052602060002001549050919050565b600f6020528060005260406000206000915090508060000160009054906101000a900473ffffffffffffffffffffffffffffffffffffffff16908060010160009054906101000a900473ffffffffffffffffffffffffffffffffffffffff16908060020154908060030160009054906101000a900460ff16905084565b60006040805190810160405280600381526020017f6f706f00000000000000000000000000000000000000000000000000000000008152506115f3338261104f565b60125491506001600d600084815260200190815260200160002060000160006101000a81548160ff0219169083151502179055506000600d600084815260200190815260200160002060030181905550813373ffffffffffffffffffffffffffffffffffffffff167fe762cf96c5f34275702fa17cf14656066fd09e43104d012935f0ba8e9a1aba0f426040518082815260200191505060405180910390a36012600081548092919060010191905055505050565b60008060008084815260200190815260200160002060009054906101000a900473ffffffffffffffffffffffffffffffffffffffff169050600073ffffffffffffffffffffffffffffffffffffffff168173ffffffffffffffffffffffffffffffffffffffff161415151561171c57600080fd5b80915050919050565b60008073ffffffffffffffffffffffffffffffffffffffff168273ffffffffffffffffffffffffffffffffffffffff161415151561176257600080fd5b600260008373ffffffffffffffffffffffffffffffffffffffff1673ffffffffffffffffffffffffffffffffffffffff168152602001908152602001600020549050919050565b6117e8336040805190810160405280600581526020017f61646d696e00000000000000000000000000000000000000000000000000000081525061104f565b6117f28282612875565b5050565b600c60009054906101000a900473ffffffffffffffffffffffffffffffffffffffff1681565b606060058054600181600116156101000203166002900480601f0160208091040260200160405190810160405280929190818152602001828054600181600116156101000203166002900480156118b45780601f10611889576101008083540402835291602001916118b4565b820191906000526020600020905b81548152906001019060200180831161189757829003601f168201915b5050505050905090565b3373ffffffffffffffffffffffffffffffffffffffff168273ffffffffffffffffffffffffffffffffffffffff16141515156118f957600080fd5b80600360003373ffffffffffffffffffffffffffffffffffffffff1673ffffffffffffffffffffffffffffffffffffffff16815260200190815260200160002060008473ffffffffffffffffffffffffffffffffffffffff1673ffffffffffffffffffffffffffffffffffffffff16815260200190815260200160002060006101000a81548160ff0219169083151502179055508173ffffffffffffffffffffffffffffffffffffffff163373ffffffffffffffffffffffffffffffffffffffff167f17307eab39ab6107e8899845ad3d59bd9653f200f220920489ca2b5937696c3183604051808215151515815260200191505060405180910390a35050565b60125481565b611a3f336040805190810160405280600581526020017f61646d696e00000000000000000000000000000000000000000000000000000081525061104f565b611a7e816040805190810160405280600381526020017f6f706f0000000000000000000000000000000000000000000000000000000000815250611c97565b50565b6040805190810160405280600681526020017f7369676e6572000000000000000000000000000000000000000000000000000081525081565b6040805190810160405280600381526020017f6f706f0000000000000000000000000000000000000000000000000000000000815250611afa338261104f565b600d600086815260200190815260200160002060020160009054906101000a900460ff168015611b485750600e600086815260200190815260200160002060009054906101000a900460ff16155b1515611b5357600080fd5b611b5d33866129c6565b83600f600087815260200190815260200160002060000160006101000a81548173ffffffffffffffffffffffffffffffffffffffff021916908373ffffffffffffffffffffffffffffffffffffffff16021790555082600f600087815260200190815260200160002060010160006101000a81548173ffffffffffffffffffffffffffffffffffffffff021916908373ffffffffffffffffffffffffffffffffffffffff16021790555081600f6000878152602001908152602001600020600201819055508273ffffffffffffffffffffffffffffffffffffffff16853373ffffffffffffffffffffffffffffffffffffffff167f8ad9fff97d4c0709ab14da95e6861c009d90f6b74b0baf3e0eabb225c71bee214286604051808381526020018281526020019250505060405180910390a45050505050565b611cd6336040805190810160405280600581526020017f61646d696e00000000000000000000000000000000000000000000000000000081525061104f565b611ce08282612a1d565b5050565b81611cef33826127e0565b1515611cfa57600080fd5b611d05858585611164565b611d1185858585612b6e565b1515611d1c57600080fd5b5050505050565b6060611d2e8261148b565b1515611d3957600080fd5b600a60008381526020019081526020016000208054600181600116156101000203166002900480601f016020809104026020016040519081016040528092919081815260200182805460018160011615610100020316600290048015611de05780601f10611db557610100808354040283529160200191611de0565b820191906000526020600020905b815481529060010190602001808311611dc357829003601f168201915b50505050509050919050565b6040805190810160405280600581526020017f61646d696e00000000000000000000000000000000000000000000000000000081525081565b6040805190810160405280600381526020017f6f706f000000000000000000000000000000000000000000000000000000000081525081565b6000600360008473ffffffffffffffffffffffffffffffffffffffff1673ffffffffffffffffffffffffffffffffffffffff16815260200190815260200160002060008373ffffffffffffffffffffffffffffffffffffffff1673ffffffffffffffffffffffffffffffffffffffff16815260200190815260200160002060009054906101000a900460ff16905092915050565b611f31336040805190810160405280600581526020017f61646d696e00000000000000000000000000000000000000000000000000000081525061104f565b611f70816040805190810160405280600681526020017f7369676e65720000000000000000000000000000000000000000000000000000815250611c97565b50565b6000601060008473ffffffffffffffffffffffffffffffffffffffff1673ffffffffffffffffffffffffffffffffffffffff1681526020019081526020016000208054905082101515611fc557600080fd5b601060008473ffffffffffffffffffffffffffffffffffffffff1673ffffffffffffffffffffffffffffffffffffffff1681526020019081526020016000208281548110151561201157fe5b9060005260206000200154905092915050565b600c60009054906101000a900473ffffffffffffffffffffffffffffffffffffffff1673ffffffffffffffffffffffffffffffffffffffff163373ffffffffffffffffffffffffffffffffffffffff1614151561208057600080fd5b600073ffffffffffffffffffffffffffffffffffffffff168173ffffffffffffffffffffffffffffffffffffffff16141515156120bc57600080fd5b8073ffffffffffffffffffffffffffffffffffffffff16600c60009054906101000a900473ffffffffffffffffffffffffffffffffffffffff1673ffffffffffffffffffffffffffffffffffffffff167f8be0079c531659141344cd1fd0a4f28419497f9722a3daafe3b4186f6b6457e060405160405180910390a380600c60006101000a81548173ffffffffffffffffffffffffffffffffffffffff021916908373ffffffffffffffffffffffffffffffffffffffff16021790555050565b6000612187826116a8565b90508073ffffffffffffffffffffffffffffffffffffffff168373ffffffffffffffffffffffffffffffffffffffff16141515156121c457600080fd5b8073ffffffffffffffffffffffffffffffffffffffff163373ffffffffffffffffffffffffffffffffffffffff16148061220457506122038133611e5e565b5b151561220f57600080fd5b600073ffffffffffffffffffffffffffffffffffffffff1661223083610ffa565b73ffffffffffffffffffffffffffffffffffffffff161415806122805750600073ffffffffffffffffffffffffffffffffffffffff168373ffffffffffffffffffffffffffffffffffffffff1614155b1561233d57826001600084815260200190815260200160002060006101000a81548173ffffffffffffffffffffffffffffffffffffffff021916908373ffffffffffffffffffffffffffffffffffffffff1602179055508273ffffffffffffffffffffffffffffffffffffffff168173ffffffffffffffffffffffffffffffffffffffff167f8c5be1e5ebec7d5bd14f71427d1e84f3dd0314c0f7b2291e5b200ac8c7c3b925846040518082815260200191505060405180910390a35b505050565b6000601060008473ffffffffffffffffffffffffffffffffffffffff1673ffffffffffffffffffffffffffffffffffffffff168152602001908152602001600020805490509050601060008473ffffffffffffffffffffffffffffffffffffffff1673ffffffffffffffffffffffffffffffffffffffff168152602001908152602001600020829080600181540180825580915050906001820390600052602060002001600090919290919091505550806011600084815260200190815260200160002081905550505050565b6124198282612428565b151561242457600080fd5b5050565b60008260000160008373ffffffffffffffffffffffffffffffffffffffff1673ffffffffffffffffffffffffffffffffffffffff16815260200190815260200160002060009054906101000a900460ff16905092915050565b8061248c33826127e0565b151561249757600080fd5b600073ffffffffffffffffffffffffffffffffffffffff168473ffffffffffffffffffffffffffffffffffffffff16141515156124d357600080fd5b600073ffffffffffffffffffffffffffffffffffffffff168373ffffffffffffffffffffffffffffffffffffffff161415151561250f57600080fd5b3373ffffffffffffffffffffffffffffffffffffffff168373ffffffffffffffffffffffffffffffffffffffff1614151561254957600080fd5b6125538483612d5c565b61255d8483612ec5565b61256783836130dd565b8273ffffffffffffffffffffffffffffffffffffffff168473ffffffffffffffffffffffffffffffffffffffff167fddf252ad1be2c89b69c2b068fc378daa952ba7f163c4a11628f55a4df523b3ef846040518082815260200191505060405180910390a350505050565b6000806000601160008581526020019081526020016000205492506126436001601060008873ffffffffffffffffffffffffffffffffffffffff1673ffffffffffffffffffffffffffffffffffffffff168152602001908152602001600020805490506131b490919063ffffffff16565b9150601060008673ffffffffffffffffffffffffffffffffffffffff1673ffffffffffffffffffffffffffffffffffffffff1681526020019081526020016000208281548110151561269157fe5b9060005260206000200154905080601060008773ffffffffffffffffffffffffffffffffffffffff1673ffffffffffffffffffffffffffffffffffffffff168152602001908152602001600020848154811015156126eb57fe5b90600052602060002001819055506000601060008773ffffffffffffffffffffffffffffffffffffffff1673ffffffffffffffffffffffffffffffffffffffff1681526020019081526020016000208381548110151561274757fe5b9060005260206000200181905550601060008673ffffffffffffffffffffffffffffffffffffffff1673ffffffffffffffffffffffffffffffffffffffff1681526020019081526020016000208054809190600190036127a791906135ee565b50600060116000868152602001908152602001600020819055508260116000838152602001908152602001600020819055505050505050565b6000806127ec836116a8565b90508073ffffffffffffffffffffffffffffffffffffffff168473ffffffffffffffffffffffffffffffffffffffff16148061285b57508373ffffffffffffffffffffffffffffffffffffffff1661284384610ffa565b73ffffffffffffffffffffffffffffffffffffffff16145b8061286c575061286b8185611e5e565b5b91505092915050565b6128f282600b836040518082805190602001908083835b6020831015156128b1578051825260208201915060208101905060208303925061288c565b6001836020036101000a03801982511681845116808217855250505050505090500191505090815260200160405180910390206131cd90919063ffffffff16565b7fd211483f91fc6eff862467f8de606587a30c8fc9981056f051b897a418df803a8282604051808373ffffffffffffffffffffffffffffffffffffffff1673ffffffffffffffffffffffffffffffffffffffff16815260200180602001828103825283818151815260200191508051906020019080838360005b8381101561298757808201518184015260208101905061296c565b50505050905090810190601f1680156129b45780820380516001836020036101000a031916815260200191505b50935050505060405180910390a15050565b6129d0828261322b565b600880549050600960008381526020019081526020016000208190555060088190806001815401808255809150509060018203906000526020600020016000909192909190915055505050565b612a9a82600b836040518082805190602001908083835b602083101515612a595780518252602082019150602081019050602083039250612a34565b6001836020036101000a03801982511681845116808217855250505050505090500191505090815260200160405180910390206132db90919063ffffffff16565b7fbfec83d64eaa953f2708271a023ab9ee82057f8f3578d548c1a4ba0b5b7004898282604051808373ffffffffffffffffffffffffffffffffffffffff1673ffffffffffffffffffffffffffffffffffffffff16815260200180602001828103825283818151815260200191508051906020019080838360005b83811015612b2f578082015181840152602081019050612b14565b50505050905090810190601f168015612b5c5780820380516001836020036101000a031916815260200191505b50935050505060405180910390a15050565b600080612b908573ffffffffffffffffffffffffffffffffffffffff16613339565b1515612b9f5760019150612d53565b8473ffffffffffffffffffffffffffffffffffffffff1663f0b9e5ba8786866040518463ffffffff167c0100000000000000000000000000000000000000000000000000000000028152600401808473ffffffffffffffffffffffffffffffffffffffff1673ffffffffffffffffffffffffffffffffffffffff16815260200183815260200180602001828103825283818151815260200191508051906020019080838360005b83811015612c61578082015181840152602081019050612c46565b50505050905090810190601f168015612c8e5780820380516001836020036101000a031916815260200191505b50945050505050602060405180830381600087803b158015612caf57600080fd5b505af1158015612cc3573d6000803e3d6000fd5b505050506040513d6020811015612cd957600080fd5b8101908080519060200190929190505050905063f0b9e5ba7c0100000000000000000000000000000000000000000000000000000000027bffffffffffffffffffffffffffffffffffffffffffffffffffffffff1916817bffffffffffffffffffffffffffffffffffffffffffffffffffffffff19161491505b50949350505050565b8173ffffffffffffffffffffffffffffffffffffffff16612d7c826116a8565b73ffffffffffffffffffffffffffffffffffffffff16141515612d9e57600080fd5b600073ffffffffffffffffffffffffffffffffffffffff166001600083815260200190815260200160002060009054906101000a900473ffffffffffffffffffffffffffffffffffffffff1673ffffffffffffffffffffffffffffffffffffffff16141515612ec15760006001600083815260200190815260200160002060006101000a81548173ffffffffffffffffffffffffffffffffffffffff021916908373ffffffffffffffffffffffffffffffffffffffff160217905550600073ffffffffffffffffffffffffffffffffffffffff168273ffffffffffffffffffffffffffffffffffffffff167f8c5be1e5ebec7d5bd14f71427d1e84f3dd0314c0f7b2291e5b200ac8c7c3b925836040518082815260200191505060405180910390a35b5050565b6000806000612ed4858561334c565b60076000858152602001908152602001600020549250612f406001600660008873ffffffffffffffffffffffffffffffffffffffff1673ffffffffffffffffffffffffffffffffffffffff168152602001908152602001600020805490506131b490919063ffffffff16565b9150600660008673ffffffffffffffffffffffffffffffffffffffff1673ffffffffffffffffffffffffffffffffffffffff16815260200190815260200160002082815481101515612f8e57fe5b9060005260206000200154905080600660008773ffffffffffffffffffffffffffffffffffffffff1673ffffffffffffffffffffffffffffffffffffffff16815260200190815260200160002084815481101515612fe857fe5b90600052602060002001819055506000600660008773ffffffffffffffffffffffffffffffffffffffff1673ffffffffffffffffffffffffffffffffffffffff1681526020019081526020016000208381548110151561304457fe5b9060005260206000200181905550600660008673ffffffffffffffffffffffffffffffffffffffff1673ffffffffffffffffffffffffffffffffffffffff1681526020019081526020016000208054809190600190036130a491906135ee565b50600060076000868152602001908152602001600020819055508260076000838152602001908152602001600020819055505050505050565b60006130e9838361347a565b600660008473ffffffffffffffffffffffffffffffffffffffff1673ffffffffffffffffffffffffffffffffffffffff168152602001908152602001600020805490509050600660008473ffffffffffffffffffffffffffffffffffffffff1673ffffffffffffffffffffffffffffffffffffffff168152602001908152602001600020829080600181540180825580915050906001820390600052602060002001600090919290919091505550806007600084815260200190815260200160002081905550505050565b60008282111515156131c257fe5b818303905092915050565b60008260000160008373ffffffffffffffffffffffffffffffffffffffff1673ffffffffffffffffffffffffffffffffffffffff16815260200190815260200160002060006101000a81548160ff0219169083151502179055505050565b600073ffffffffffffffffffffffffffffffffffffffff168273ffffffffffffffffffffffffffffffffffffffff161415151561326757600080fd5b61327182826130dd565b8173ffffffffffffffffffffffffffffffffffffffff16600073ffffffffffffffffffffffffffffffffffffffff167fddf252ad1be2c89b69c2b068fc378daa952ba7f163c4a11628f55a4df523b3ef836040518082815260200191505060405180910390a35050565b60018260000160008373ffffffffffffffffffffffffffffffffffffffff1673ffffffffffffffffffffffffffffffffffffffff16815260200190815260200160002060006101000a81548160ff0219169083151502179055505050565b600080823b905060008111915050919050565b8173ffffffffffffffffffffffffffffffffffffffff1661336c826116a8565b73ffffffffffffffffffffffffffffffffffffffff1614151561338e57600080fd5b6133e16001600260008573ffffffffffffffffffffffffffffffffffffffff1673ffffffffffffffffffffffffffffffffffffffff168152602001908152602001600020546131b490919063ffffffff16565b600260008473ffffffffffffffffffffffffffffffffffffffff1673ffffffffffffffffffffffffffffffffffffffff16815260200190815260200160002081905550600080600083815260200190815260200160002060006101000a81548173ffffffffffffffffffffffffffffffffffffffff021916908373ffffffffffffffffffffffffffffffffffffffff1602179055505050565b600073ffffffffffffffffffffffffffffffffffffffff1660008083815260200190815260200160002060009054906101000a900473ffffffffffffffffffffffffffffffffffffffff1673ffffffffffffffffffffffffffffffffffffffff161415156134e757600080fd5b8160008083815260200190815260200160002060006101000a81548173ffffffffffffffffffffffffffffffffffffffff021916908373ffffffffffffffffffffffffffffffffffffffff16021790555061358b6001600260008573ffffffffffffffffffffffffffffffffffffffff1673ffffffffffffffffffffffffffffffffffffffff168152602001908152602001600020546135d290919063ffffffff16565b600260008473ffffffffffffffffffffffffffffffffffffffff1673ffffffffffffffffffffffffffffffffffffffff168152602001908152602001600020819055505050565b600081830190508281101515156135e557fe5b80905092915050565b81548183558181111561361557818360005260206000209182019101613614919061361a565b5b505050565b61363c91905b80821115613638576000816000905550600101613620565b5090565b905600a165627a7a72305820c5aff01916dc34ad19b96802320e1b4a149da7d45422dc00c6fbe12cecff3f410029",
  "source": "pragma solidity ^0.4.21;\n\nimport \"./zeppelin/ERC721/ERC721Token.sol\";\nimport \"./zeppelin/rbac/RBACWithAdmin.sol\";\nimport \"./zeppelin/Ownable.sol\";\nimport \"./zeppelin/SafeMath.sol\";\n\ncontract Organ is ERC721Token, RBACWithAdmin, Ownable {\n\n    string public constant ROLE_SIGNER = \"signer\";\n    string public constant ROLE_OPO = \"opo\";\n\n    struct Signatures {\n        bool submitted;\n        bool[3] signatures;\n        bool finished;\n        uint256 sigsCollected;\n    }\n\n    struct MetaData {\n        address donor;\n        address recipient;\n        uint256 expiration;\n        bool delivered;\n    }\n\n    mapping (uint256 => Signatures) pendingSubmissions;\n    mapping (uint256 => bool) createdOrgans;\n    mapping (uint256 => MetaData) public tokenIdToMetaData;\n    mapping (address => uint256[]) internal approvedTokens;\n    mapping (uint256 => uint256) internal approvedTokensIndex;\n\n    uint256 public totalSubmissions;\n\n    event Submission(address indexed submitter, uint256 indexed id, uint256 timestamp);\n    event Sign(address indexed signer, uint256 indexed id, uint256 numSignature);\n    event SubmissionFinished(uint256 indexed id);\n    event OrganMinted(address indexed minter, uint256 indexed id, address indexed recipient, uint256 timestamp, uint256 expiration);\n\n    constructor() ERC721Token(\"Organ\", \"ORGAN\") public {}\n\n    function addSigner(address _signer) onlyAdmin public {\n        adminAddRole(_signer, ROLE_SIGNER);\n    }\n\n    function addOpo(address _opo) onlyAdmin public {\n        adminAddRole(_opo, ROLE_OPO);\n    }\n\n    function submitOrgan() onlyRole(ROLE_OPO) public {\n        uint256 id = totalSubmissions;\n\n        pendingSubmissions[id].submitted = true;\n        pendingSubmissions[id].sigsCollected = 0;\n        emit Submission(msg.sender, id, block.timestamp);\n\n        totalSubmissions++;\n    }\n\n    function signSubmission(uint256 _id) onlyRole(ROLE_SIGNER) public {\n        require(pendingSubmissions[_id].submitted == true && pendingSubmissions[_id].finished == false);\n\n        Signatures storage signature = pendingSubmissions[_id];\n\n        uint256 numSignature = signature.sigsCollected;\n        signature.signatures[numSignature] = true;\n        emit Sign(msg.sender, _id, numSignature++);\n\n        signature.sigsCollected++;\n        numSignature = signature.sigsCollected;\n        if(numSignature == 3) {\n            signature.finished = true;\n            emit SubmissionFinished(_id);\n        }\n    }\n\n    function mintOrgan(uint256 _id, address _donor, address _recipient, uint256 _expiration) onlyRole(ROLE_OPO) public {\n        require(pendingSubmissions[_id].finished && !createdOrgans[_id]);\n\n        _mint(msg.sender, _id);\n\n        tokenIdToMetaData[_id].donor = _donor;\n        tokenIdToMetaData[_id].recipient = _recipient;\n        tokenIdToMetaData[_id].expiration = _expiration;\n\n        emit OrganMinted(msg.sender, _id, _recipient, block.timestamp, _expiration);\n    }\n\n    function tokenOfApprovalByIndex(address _owner, uint256 _index) public view returns (uint256) {\n        require(_index < approvedTokens[_owner].length);\n        return approvedTokens[_owner][_index];\n    }\n\n    function approve(address _to, uint256 _tokenId) public {\n        super.approve(_to, _tokenId);\n        addTokenToApproval(_to, _tokenId);\n    }\n\n    function transferFrom(address _from, address _to, uint256 _tokenId) public {\n        super.transferFrom(_from, _to, _tokenId);\n        removeTokenFromApproval(_to, _tokenId);\n\n        if(msg.sender == tokenIdToMetaData[_tokenId].recipient) {\n            tokenIdToMetaData[_tokenId].delivered = true;\n        }\n    }\n\n    function addTokenToApproval(address _to, uint256 _tokenId) internal {\n        uint256 length = approvedTokens[_to].length;\n        approvedTokens[_to].push(_tokenId);\n        approvedTokensIndex[_tokenId] = length;\n    }\n\n    function removeTokenFromApproval(address _from, uint256 _tokenId) internal {\n        uint256 tokenIndex = approvedTokensIndex[_tokenId];\n        uint256 lastTokenIndex = approvedTokens[_from].length.sub(1);\n        uint256 lastToken = approvedTokens[_from][lastTokenIndex];\n\n        approvedTokens[_from][tokenIndex] = lastToken;\n        approvedTokens[_from][lastTokenIndex] = 0;\n        // Note that this will handle single-element arrays. In that case, both tokenIndex and lastTokenIndex are going to\n        // be zero. Then we can make sure that we will remove _tokenId from the ownedTokens list since we are first swapping\n        // the lastToken to the first position, and then dropping the element placed in the last position of the list\n\n        approvedTokens[_from].length--;\n        approvedTokensIndex[_tokenId] = 0;\n        approvedTokensIndex[lastToken] = tokenIndex;\n    }\n}",
  "sourcePath": "/Users/saurfang/workspace/OrganTrail/contracts/Organ.sol",
  "compiler": {
    "name": "solc",
    "version": "0.4.23+commit.124ca40d.Emscripten.clang"
  },
  "schemaVersion": "2.0.0",
  "updatedAt": "2018-05-19T21:55:03.671Z"
}